:0200000280007C
:1000000068790720D1720800CD720800CD7208000F
:10001000CD720800CD720800CD720800000000000B
:10002000000000000000000000000000CD72080089
:10003000CD72080000000000CD720800CD720800EB
:10004000CD720800CD720800CD720800CD72080094
:10005000CD720800CD720800CD720800CD72080084
:10006000CD720800CD720800000000001971080070
:100070002D71080041710800557108000000000052
:1000800000000000CD720800CD720800CD7208009B
:10009000CD720800CD720800CD720800CD72080044
:1000A000CD72080000000000CD720800CD7208007B
:1000B000CD720800CD720800CD720800CD72080024
:1000C000CD720800CD720800CD720800CD72080014
:1000D000CD720800CD720800CD720800CD72080004
:1000E00051400800CD7208009D230800CD72080021
:1000F000CD72080008B50548054B191A062900D825
:1001000008BD044A002AFBD09047F9E710BD08005B
:1001100013BD08000000000008B50748074B191A76
:100120008A1002EBD273591000D108BD044A002A8C
:10013000FBD09047F9E700BF10BD080010BD0800D4
:100140000000000010B5064C237843B9FFF7D2FF3A
:10015000044810B10448AFF300800121217010BDA4
:10016000300A07200000000010BD080008B5084B49
:100170001BB108480849AFF300800848016811B175
:10018000074A02B19047BDE80840FFF7C5BF00BF6E
:100190000000000010BD0800340A072010BD080050
:1001A000000000002DE9F341002202AB03F8012D0D
:1001B00090F80080476886680446C568027042600F
:1001C00083600120E06006482146064A90470028E7
:1001D000F9D184F800806760A660E560BDE8FC8125
:1001E000000009403D3A08007FB58DF80400012069
:1001F0005023029003920491054A01A905488DF805
:1002000014309047003018BF012007B000BD00BF78
:10021000C13908000000094030B5484387B0502379
:100220008DF80400039204910124084801A9084AAA
:100230008DF8143002949047054620B901A805496D
:100240008847284600E0204607B030BD000009403E
:100250003D3A0800A501080070B5891A0824073145
:1002600091FBF4F102F00702401810F8011CD418B9
:10027000082C41FA02F110DD10F8026CC2F10805F9
:1002800006FA05F5102C41EA050106DD10F8030C0D
:10029000C2F1100200FA02F00143012202FA03F354
:1002A000581E084070BD000010B5074B07491A687A
:1002B000087892F822401168231C527C18BF012351
:1002C000034CA04710BD00BF500A0720560A072064
:1002D0006935080008B5034B187808B90249884702
:1002E00008BD00BF560A0720C935080010B55202E4
:1002F000029C42EA017141EAC070227840EAC3637D
:1003000043EA020141F23430034B984718B10349E4
:1003100088472070012010BDED3508001136080017
:1003200038B5002854D12C498C68630903F50012B4
:1003300002F207756B02DA6B04F01F04012303FA63
:1003400004F515EA02040D468A7B09D09A4204D1CD
:10035000224A117809B1224B18600420A87335E0B5
:10036000042A0ED11E4A8B7310681C4920B91D48FF
:100370000B705060136029E01B481C4B0C709847B1
:1003800024E0012A11D11548017821B1144B1A68D3
:10039000D2031BD51C60104C1549022001230022FA
:1003A000A0732160637484F822200B4CA07B032887
:1003B00010D01049104B0020104A08701C60904764
:1003C000A07B811E4B4253EB010038BD022038BD9B
:1003D000042038BD38BD00BF0C0007204E0A07209E
:1003E00010E000E0A037A000808D5B000100072036
:1003F000A0860100560A0720500A0720A90208001B
:1004000010B5074C41F609302368064A998909045A
:10041000904720B12068044B12309847012010BD4E
:10042000500A0720ED3508001936080073B5069DFF
:10043000090741EA422242EAC074EE0544EAD65175
:10044000074A084E01240094002814BF3046104685
:1004500041EA8361AAB22346034CA0477CBD00BF9A
:1004600035130100359301003936080008B5044BF7
:10047000042204499A73FF20034A0870904708BD7C
:100480000C000720560A07202D3508002DE9F04101
:10049000994B94B098470128064640F0D583974879
:1004A00000240168964A0C748C81CE7390472146D3
:1004B0004FF48040934CA047002800F0C18345F2E0
:1004C00008504FF4D571A04750B18F4B9847431C4B
:1004D00006D00005B0F1D55F40F0B283354600E0AC
:1004E000002544F205500021864A904700B3864912
:1004F000884710F0E04F02461AD041F2893444F2A6
:10050000055002F4FC117F4B9847002800F09883B7
:100510007D488047021E02DB013CF0D190E3774921
:1005200012F0006F0B6801D0052000E00420D873A2
:10053000724A1168CB7BD90724D540F6350441F2C5
:10054000371000216F4FB847002800F05B826F49D9
:1005500044F22950002D08BF4FF4FC11B847002881
:1005600000F0508268488047002808DA410009D529
:10057000624A1168CB7B43F00800C87302E0013C7B
:10058000DDD13FE25D4A1168CB7BD80708D445F244
:10059000031000215B4B9847002800F0518307E0CF
:1005A00045F602300021574A90470028EFD147E333
:1005B000524C5548256880472268010CA981D37B9D
:1005C000D90743D552488047002800F0398327686F
:1005D000802107F112056022082328464D4CA047D0
:1005E0004D4A00F0070152F821304FF47A714B4325
:1005F0004A4AC0F3C30052F8201028464B437E22DB
:100600003B6080210223A04738B130222846802158
:100610001623A047421C540217E0284680213E22A0
:100620000C23A047802180462F2228460323A04781
:1006300008F10103023003FA00F880212846502215
:100640000423A04708FA00F5AC0A7C602B4C43F267
:10065000071021682B4D8B891904A847002800F04A
:10066000EF822068C27BD20708D4244B1868C17B74
:1006700001F00402D3B2002B5AD1BEE0818941F2CD
:1006800037100904A847002800F0DA8201250095F8
:100690002348002108222B46224FB847002800F0AB
:1006A000CF8204A82946204B9847002800F0C88232
:1006B0001E488047002800F0C382402138220423CE
:1006C00004A8144FB847A84203D011D302280FD171
:1006D00002E021681A220DE040212F2204A82B46B7
:1006E000B8470128216801D1302203E0202201E02F
:1006F000216810220A74B8E721030800500A072075
:10070000CB350800ED3508001136080000801F4089
:10071000010408005902080054AD080014AD080097
:10072000331108003936080045370800E93708005A
:1007300000250124039500949E489F4903222346E7
:100740009E4DA847002800F07B8203A821469C4AC2
:100750009047002800F074829A488047002800F0F3
:100760006F82039C03210020009122460146012351
:10077000DFF88C82C047002800F0628204A80121C3
:100780008F4FB847002800F05B828E4DA8470028A5
:1007900000F056829DF81030FF2B00F05182222B82
:1007A00032D19DF8120000282ED106220092014677
:1007B00022460123C047002800F0428204A80121FC
:1007C000B847002800F03C82A847002800F0388293
:1007D0009DF815107C48322928BF32210268CB08C9
:1007E00001F00700794951F82010794850F823307A
:1007F0004B434FF47A714B431360764A764B107833
:10080000984703280DD84DE09DF81120002A00F0EC
:1008100017820399901C241801F580739C42A1D97A
:100820000EE2694D2C68E07B00F00401CAB22AB9DF
:10083000654C2368DA7BD0071FD431E0002003AC7D
:100840000094014608220346644FB847002800F090
:10085000F7819DF90C30002BEADA02208DF80C00AC
:1008600001200094002107220346B847002800F029
:10087000E7812C6804216174DAE79D8941F2371021
:100880002904574DA847002800F0DA8141F20610EC
:100890000221A847002800F0D38120680421417478
:1008A000504B9847504A904700286FD0464D2868D3
:1008B000C17B01F00403DAB22AB9434D2B68D97B1E
:1008C000C90723D425E0002003AC0094014613227D
:1008D0000346424FB847002800F0B2819DF80C0053
:1008E000C207EAD5022101208DF80C1000940021E6
:1008F00013220346B847002800F0A2812D68012387
:100900002A6885F8223050002860D6E71A7C102A21
:1009100002D83449884739E00124009433483449E7
:1009200040222346254FB847002800F0898104A8BB
:100930002146234B9847002800F0828121488047B8
:10094000002800F07D812B498847030600F178815B
:10095000042304A84FF400714FF4BC72264FB8472B
:100960000F28D6D004A84FF400714FF488721023DA
:10097000B847002840F06481204A90472B681868E7
:1009800083F8224000FA04F01860C2E70E4A1368A8
:10099000D87BC00708D541F210104FF40071104AFF
:1009A0009047002800F04C810749002208688273B4
:1009B0004AE100BF35130100031200043936080074
:1009C00045370800E9370800500A072054AD0800F1
:1009D00014AD0800560A072059350800ED0208003A
:1009E000ED350800A902080063350800061108006B
:1009F00001FFFF801136080059020800CB350800BE
:100A00002D040800934902200B68934AD8730021F3
:100A10004FF480409047002800F0128141F26904B1
:100A200044F201508D498C4B9847002800F0088112
:100A30008B49884700280BDA00F0C045B5F1804F9C
:100A400009D184480368DA7B42F00801D97302E0D7
:100A5000013CE5D1F4E045F6023000217E4DA84787
:100A6000002800F0ED807B4C012320684FF480319A
:100A7000838141F20310A847002800F0E180794A01
:100A80009047002800F0DC802468802104F11205E2
:100A9000754F28467A220423B847411EB8460329D9
:100AA00003D8DFE801F00406080A122006E014204B
:100AB00004E0222002E0302000E04020802160227B
:100AC000082320742846C047684B00F0070253F8FB
:100AD00022104FF47A725143654BC0F3C30053F8B0
:100AE00020200C235143284621603E228021C0470C
:100AF00040F6FF7188425C4F804612D080212F2241
:100B000003232846B84708F1010C02300CFA00F81C
:100B10005022042328468021B84708FA00F39A0A95
:100B20006260A18943F2071009044B4B98470028E3
:100B300000F08680474C2068027C3F2A70D9002153
:100B400000914C484FF4007201234B4CA047002801
:100B500076D0322402A849498847002870D0631E05
:100B60009CB2002CF6D13B48029F006807F00204BB
:100B70003E22123080210C23E7B23B4CA04740F6C6
:100B8000FF72322490420DD103A83C4988470028C7
:100B900056D0631C9CB2362CF6D12E4803990268BD
:100BA0004B08536003A8354A9047002848D00134C9
:100BB000A4B27F2CF6D9324D324C2878A0470328B6
:100BC00019D92878A04704460438C3B2042B96BF2D
:100BD0002D4A2E4952F8231043F206101E4B984717
:100BE00000282DD01E498847020629D41948284BD1
:100BF0000268547498472749884798B197B143F2DF
:100C000006102549144A9047D0B11548804703067D
:100C100016D4104C214A2368012183F822101A604F
:100C20001B4880470B24013C14F0FF0408D041F21C
:100C300010104FF40071084B98470028F3D0B3E62A
:100C4000044E336803269E7315498847304614B016
:100C5000BDE8F081500A0720ED35080000801F40F4
:100C600011360800010408005902080054AD0800BC
:100C700070AD08000811080039360800E536080094
:100C8000560A072059350800B0AD08000000B7012A
:100C9000A9020800633508000001B90300751903B3
:100CA000D50208002DE9F341204B0F461446984722
:100CB0000546002837D11E4EDFF89C801D4AD8F823
:100CC0000000818941F20D1009049047D8B11A4BF8
:100CD0009847C20502D4013EEED114E0D8F80010C6
:100CE000164ECA7B164802F00803012C98BF304606
:100CF000DEB266B979020122009223464FF40072F7
:100D0000104EB04728B9104DA84705250BE03946CD
:100D1000F1E7094880470D4901400029F3D10C4B08
:100D20000C4A1C8014802846BDE8FC812103080081
:100D3000410D0300ED3508001136080011110800BF
:100D40001211100039360800D5020800000058E4DE
:100D5000540A07204C0A0720500A072010B5064BFA
:100D60000C469847054910B90880052010BD0A882F
:100D70000020141B0C8010BD45370800540A0720C2
:100D800010B50E4B9847A0B10D48018899B90D4A8E
:100D90001388012B02D10C4988470CE043F20C1058
:100DA0000A4CA04701460028F5D143F20C10A04799
:100DB000F1E7052010BD002010BD00BFE937080095
:100DC000540A07204C0A0720D5020800ED35080018
:100DD00073B5164B0E4614469847054620BB144A79
:100DE000144913681448012C88BF0846D97B01F0C8
:100DF0000802D3B20BB9710200E031460126009619
:100E00004FF4007223460D4EB04718B90C4DA84759
:100E1000052509E00B4880470B4901400029F5D121
:100E20000A4A0B4B14801C8028467CBD2103080015
:100E3000500A07201991100018910800393608004F
:100E4000D502080011360800000058E4540A0720B3
:100E50004C0A072010B5064B0C469847054910B9B7
:100E60000880052010BD0A880020141B0C8010BDCE
:100E700041380800540A072010B50C4B984780B140
:100E80000B48018879B90B4A1488012C0A4C01D10E
:100E9000A04708E043F20C10084B98470028F7D110
:100EA000A047052010BD002010BD00BFD9380800A4
:100EB000540A07204C0A0720D5020800ED35080027
:100EC000EFF3108072B6BFF35F8F0022811A024BDE
:100ED00048421A704841704764010720024B1A7853
:100EE000501EC1B219707047E60A072000207047F3
:100EF000002070477047000008B5064B1A78501E56
:100F0000C1B219701B78044B984704480022027044
:100F100008BD00BF5E0A0720916A0800EC0A07209E
:100F200028B1034B01221A70BFF35F8F62B670477E
:100F300064010720134B1A7812F0800F02F0600052
:100F400008D020281BD15A78212A18D1D888072800
:100F500015D10FE0202812D15978202905D0B1F100
:100F600022035A4252EB03007047D888072806D163
:100F70000549196105499881996001207047002051
:100F8000704700BFB8520720F50E0800570A072027
:100F9000F7B5334B1878002860D132498847324A78
:100FA000148868B1314B9847844257D0304CA047E1
:100FB000304D06462C78304830F81410B9B901E0AD
:100FC0002E4BF0E72E4D2F887A1C264F2A80B847EB
:100FD00030B92B88632B03D830462A4B98473DE025
:100FE000B84720B126480188B1F5487FF4D3264B95
:100FF000234A18780025158030B9611B4D421D4BDE
:1010000055EB01021A7003E0D4F1010438BF00244B
:101010001349012008701B4D3046A847164A32F884
:101020001430B3F1400518BF01254DB10D4EB04746
:101030000D4E08B10D4900E010498847308001E0AD
:10104000094805800C4A114832F81430104A0090C3
:1010500002EB8412812029460E4CA047FEBD00BF42
:10106000F20A072011450800EA0A07205D4508003A
:10107000C10E08005F0A0720600A07204D450800DE
:10108000E40A0720210F0800810B0720A5100800A3
:10109000640A07204147080008B5014B984708BD7E
:1010A000910F080008B570B9074B084A1978084B2A
:1010B000D1F1010138BF002123F811000549087062
:1010C00010700548804708BD5F0A0720F20A072014
:1010D000600A0720810B0720910F080038B5124BDA
:1010E000124C0022124D22701A8020236B70A12016
:1010F000104B2870114602206A80AA80E8802A815D
:1011000019711A7001256FF03D02D97059710821CB
:101110005A709D7099710848804720B123782846FD
:101120005A19D1B2217038BD820B0720E60A072078
:10113000F40A0720570A0720856A080010B5074BF4
:1011400098470749074A0C88074BA1B2147833F82F
:101150001420541A05498847204610BDC10E0800C6
:10116000E80A0720ED0A0720EE0A0720210F0800F1
:1011700008B5034B9847003018BF012008BD00BFD9
:101180003D110800F7B5174B9847174A174B1478CD
:101190001D78064645B91649DFF86CE00F883EF821
:1011A00014C0BFB2BC4504D930461249884700205C
:1011B00016E0D4F1010638BF00260D8016700D4AE6
:1011C00001261E7090470C4B284698470B480C4A46
:1011D000009002EB8412022031464023094CA047C4
:1011E000FEBD00BFC10E0800ED0A0720800B0720DE
:1011F000E80A0720210F0800711108000D120800ED
:10120000000B072041470800EE0A072013B5C0B9BC
:101210000C4B1B78D3F1010338BF002351B90A4CA2
:1012200010460A4A009402EB831201214023084C25
:10123000A04706E0074A22F813100749087007483C
:1012400080471CBDED0A07200D120800000B072087
:1012500041470800EE0A0720800B0720851108008F
:1012600070B5144B144D002414482C70144A1C7093
:101270001449154B047015480C70148054801C8060
:1012800080471349134A144B14480C7014491470C6
:1012900026461C800480884758B12A78531CD8B24F
:1012A000287029780129084602D10E4A117070BDB4
:1012B000012070BDF20A07205E0A0720810B07207B
:1012C000600A07205F0A0720EA0A0720910F08003A
:1012D000800B0720ED0A0720EE0A0720E80A072006
:1012E00085110800EC0A07202DE9F041174B9E7983
:1012F000B6F10900414251EB00060027144ADFF81D
:101300006C80144C9047144BB8F8005024789847E0
:101310001248ADB230F81410A94204D810490C7824
:10132000002CEBD10FE005EB84120E4C0135A35CD1
:10133000ADB20D4847EA0304A8F80050804716B143
:1013400027020026DAE72046BDE8F081570A072089
:10135000C10E0800ED0A0720210F0800EE0A072041
:10136000EC0A0720000B072085110800E80A072077
:1013700008B50020014B984708BD00BFE9120800DE
:1013800070B5104B9847104A104D117835F8114040
:10139000D1F1010138BF0021402C35F811500AD19C
:1013A0000B4B1B783BB90B4E337823B901253570B5
:1013B000254611701C46084A90472819C0F1800044
:1013C00070BD00BFC10E08005F0A0720600A072039
:1013D000F20A0720810B0720210F080008B5034BF4
:1013E0009847003018BF012008BD00BF81130800D6
:1013F000F8B5144B0C469D79B5F1090EDEF10000ED
:1014000050EB0E0500201049884720B90F4800789E
:101410000028F7D1F8BD0E4E0E4A904733780E4A99
:101420000E4F32F8131001EB8316013122F813101E
:101430000B4BBC55984715B124120025E2E701205B
:10144000F8BD00BF570A0720DD130800EC0A07208B
:101450005F0A0720C10E0800600A0720640A0720FF
:10146000210F080008B50146014B0020984708BD30
:10147000F113080008B5034B0349588800F07F00BA
:10148000884708BDB85207201545080010B5124B13
:101490001A782AB1114B1A6813681A79824201D856
:1014A000002010BD0E4A13605A889A189A420FD92C
:1014B0005C78042C09D19C78844206D1DC788C427B
:1014C00003D1074901200B6010BD1C781B19EDE703
:1014D00003480360E4E700BF900B0720880B072058
:1014E000940B0720084B19680B685A889B180178E1
:1014F0004018834205D94278042A02D0052AF6D141
:1015000000E00020704700BF880B072070B5002165
:101510000E4C0646A047C0B10D4B1868416851F803
:101520002650EA68904701463046A04768B1094C0A
:1015300024682046084B9847044618B1807807492C
:101540008847F6E768688047012070BD8D14080061
:10155000880B0720940B0720E51408007945080044
:1015600038B50E4B0546984708B9002038BD0C48E1
:10157000046820460B498847044638B18078E178F2
:10158000A288094B98470028F3D1EEE7074A106874
:10159000416851F825301A68904738BD8D1408000D
:1015A000940B0720E5140800FD470800880B07206E
:1015B00008B5014B984708BD693E080010B50B4BB4
:1015C000187830B9094A0A4B00210120117018809F
:1015D00010BD002407490A6813681879A042F1D9A0
:1015E0002046054901348847E4B2F3E7900B072011
:1015F0008E0B0720880B07200D15080010B50A4B2D
:10160000187800B910BD002408490B681A681079D1
:10161000A04208D9596851F824301A6902B190479C
:101620000134E4B2F0E710BD900B0720880B0720CF
:1016300070B5904A00239381136153611378D8B237
:10164000010603D5D188002900F07D8113F06001E7
:1016500040F0368110F0800F864C7FD0E588002D59
:1016600000F02E8113F01F003ED16178062909D0C9
:10167000082934D0002940F02381022D40F0208138
:101680007D4867E06088050A022D08D0032D16D03A
:10169000012D40F0158179490868017815E0774AF5
:1016A000C0B211684B7C834240F20A815268744B8D
:1016B00052F8300041889847A068457007E010F064
:1016C000FF0F40F0FD806F4804216D4B9847694B38
:1016D000DA889989914240F2CB809A81C8E0012D45
:1016E00040F0EE80684835E0012823D160780A2870
:1016F00040F0E680012D40F0E380634B1A78002A29
:1017000000F0DE80614D24792D6828680379A342BA
:1017100040F2D68020465E4A9047002800F0D080F4
:10172000696851F82400C36898475A4A012110702B
:10173000104610E0022840F0C3806178002940F094
:10174000BF80022D40F0BC802079534B9847534A0C
:101750001080104629464A4B984789E013F01F0332
:1017600051D16178481E082800F2AA80DFE810F005
:101770001100A800A800A8000900A800A800A8005F
:101780002000E288002A40F09B804549394B1961CE
:101790006EE0E088002840F09380364A51880129A5
:1017A00040F08E80344B188820F002021A805FE0EF
:1017B000E488304D002C40F083803A498847002867
:1017C0007ED02E4EA87833685A7C904278DC364919
:1017D0008847A8782C4B1870002849D07268411EA1
:1017E0002A4B02EBC100186028490A681068037987
:1017F000A3423DD9204600212C4A904700285FD0C3
:101800000134E4B2F0E7012B15D162780B2A57D1ED
:10181000E188002954D11C480378002B50D0257949
:10182000234A284664889047002849D02846E1B2D8
:101830001E4B98471BE0022B42D16078012802D052
:1018400003283DD108E0E088002839D16388002BC7
:1018500036D12079174909E0E188002930D1638821
:1018600073BB2079144A904720791449884738B3CC
:10187000012070BDB85207208E0B072058000720AA
:101880006D450800C8000720900B0720880B072033
:101890008D140800840B0720CD4508008C0B072011
:1018A000751408003D450800BD15080061150800C5
:1018B0000D150800914608009D490800E145080003
:1018C0002248037803F01F02012A1BD120490B781C
:1018D000C3B1204E0479366830680279A24211D92A
:1018E000204600211C4DA84760B1716851F8246062
:1018F000F368984701462046A84718B1B06880476A
:101900000028B5D1114A117801F01F03022B1AD11A
:101910000F480278BAB100240E490B6818680279A2
:10192000A24210D95D6855F82450E96888470A4BEF
:1019300001462046984730B1A8688047002897D1D3
:101940000134E4B2E8E7002070BD00BFB8520720C0
:10195000900B0720880B07208D140800034610B554
:1019600001220C4600201946054B984720460121CC
:10197000044A9047044880470028FBD1012010BD4D
:10198000D10D0800550E0800790E0800034610B569
:1019900001220C4600201946054B9847204601219C
:1019A000044A9047044880470028FBD1012010BD1D
:1019B000A50C08005D0D0800810D08000000000066
:1019C000F0B587B0019100230092012202930446F2
:1019D0000492059302980199884222D2144803A9DF
:1019E000144DA84728B9029E039F721CFBB2A35551
:1019F0000292049810490CA3D3E9002316461F460F
:101A0000E1FB00670D4A0023304639460C4DA847DC
:101A10000C4B9847059A501C05900099059B9942DC
:101A2000D8D2029807B0F0BD7F9FD500000000001B
:101A3000008009403D4B080000BD0105809FD50096
:101A4000BD74080001000720F8B51148114CA047EB
:101A50001148124EA0475620114DB0475520114F46
:101A6000A8471148A047B8475620A8470F48A047A5
:101A7000B8475520B0470E48A047B8475620B04752
:101A80005520A8470B48A0470B48A047F8BD00BF0A
:101A90005AAE0800A97B08006BAE0800916E0800E2
:101AA000616E08007113080096AE0800B1AE080020
:101AB000CDAE0800E6AE0800F8AE080030B5002450
:101AC000C7B0564B21460C2203A80294984749F60A
:101AD0004040534A5021049052488DF81410524D02
:101AE000904703A94F48A847504D5148A84751482F
:101AF000A847019401230093009C7F2C0FD8009AE3
:101B00004848D1B24C4B984730B900994B48474CA4
:101B1000A0470198411C0191009A531CEBE70199E1
:101B20004748424CA047019B002B72D04548A04734
:101B30004FF480714448A0470021009100980F287D
:101B400021D800210191019C0F2C06AC0DD8019BDE
:101B5000019A00988118CAB2E254019B3B48E15CAB
:101B6000324CA0470198411CECE7304B384898476D
:101B7000102122460098374CA0473748374A9047F3
:101B80000098411CD9E700214FF48072234C06A82D
:101B9000A047264C2E48A0474FF4807106AA304B30
:101BA000002098474FF480712E48A04700210091F3
:101BB00000990F2924D80021019101980F2819D8E4
:101BC000009A019806AB00EB02141A5D0198009987
:101BD0000C18A24202D0029B5A1C02920098019952
:101BE00006AB01EB0014195D1848104A90470198A4
:101BF000411CE1E716480D4CA047009B591CD6E755
:101C0000029A0A4C1AB102991748A04701E01748F6
:101C1000A0471748A04747B030BD00BFFB7B080076
:101C2000313908000000094081390800A97B08000B
:101C300003AF080013AF0800B93A080029AF080045
:101C400043AF08006EAF08009CAF0800B4AF0800B7
:101C500088BA08001902080020BF0200010007200E
:101C6000E9010800BCAF0800D3AF0800DFAF0800EF
:101C7000F8AE08002DE9F0411B481C4CDFF8A480A9
:101C8000A0471B481B4FA04745201B4EB847404666
:101C90001A4DA047B0474520A8471948A047194802
:101CA000A0474620B8474046A047B0474620A8472F
:101CB0001548A0471548A0474720B8474046A047C9
:101CC000B0474720A8471248A0471248A0474820DD
:101CD000B8471148A047B0474820A8470F48A04739
:101CE0000F48A047BDE8F081EFAF0800A97B0800CE
:101CF00002B00800C16E080071130800F56E0800FC
:101D000037B0080046B0080054B0080063B00800BF
:101D100071B0080080B008008EB00800AEB00800B6
:101D2000F8AE080010B0080030B587B000211822C6
:101D30001C4B684698471C4C4FF400634FF4E1314C
:101D4000C0221A488DE80E00A0471948A047194D37
:101D5000194A69461948A847194918488847194A2D
:101D6000164890471848A0471120184CA0476120FA
:101D7000A0470D4C1648A0471649174B0F489847E7
:101D80001648A04716488047C5B2202DF1D0112033
:101D9000144DA8476120A8471348A0471348A047FF
:101DA00007B030BDFB7B0800A97B0800BDB0080070
:101DB000CEB00800854A080000BD010500C00940FA
:101DC000F14A0800F74A0800FEB00800D36F080087
:101DD00009B1080023B10800214B080039B10800FF
:101DE00071130800ED6F08007BB10800F8AE080021
:101DF0002DE9F041F2B08C4C002118228B4B04A845
:101E000098474FF4E130C0210490059126462068A0
:101E1000616856F8087F4FF400626D46069203C56C
:101E2000B38800202F60AB8004F11006ADF80E00DF
:101E300012AD2034306871682A4603C20836A642C3
:101E40001546F7D13188B4781180947000216D2245
:101E5000764E0DF15B00B047754C7648A04776484A
:101E6000A047764F04A9764A7648B847764B75481E
:101E70009847764A73489047754D41F27070A8476D
:101E80007448A047744F0920B8477448A84774485D
:101E9000A0476920B8477348A84773496920884715
:101EA0006E48A8477148A0477148A8477148A047A5
:101EB000202200210AA8B04762486F496F4EB04700
:101EC0000AA819216E4A6F4B984758B10AA86E4963
:101ED0006E4A904730B131210AA86D4DA84701469E
:101EE0006C48A04720220021504C0AA8A0475B481C
:101EF00057498847614D53486749A847614E20219B
:101F00005F4A0AA8B0470AA85F49604EB047484CEC
:101F100058B90AA86149B04718B16148A04761485B
:101F2000E5E06148A0476148E1E046486049A847CC
:101F30006048A04760483E4FB84700255F4880474B
:101F4000C4B2A4F13003092B01D92B2C05D12046B2
:101F50005B4A90470DF8054001350D2CEED100216C
:101F60005848334E0DF80510B04757486946B047FA
:101F7000524FB847C4B2592C05D0792C03D04E2CFF
:101F800001D06E2CF4D120464D4B9847592C01D0EE
:101F9000792CCFD14D48264A9047002447488047A6
:101FA000C6B27F2E304612AD454905D088472E5522
:101FB00001340D2EF2D104E0002788472F55013C53
:101FC000ECE700262E553F48194CA04729464048CB
:101FD000A0474048A047404B6A46404932A898472E
:101FE000DFF8988032A91748C047194F1D48B847F5
:101FF00029461448C0471948B8471A21384A114899
:10200000904731462022094B0AA898472021354A9B
:102010000AA81C4B98470AA81B491C4A904700284D
:1020200064D0314863E000BFC4AD0800FB7B08000A
:10203000A97B080087B1080099B10800854A08000B
:1020400000BD010500800940F14A0800F74A080078
:1020500001000720C4B10800D36F0800C0C62D00DE
:10206000D7B1080040548900ED6F0800ECB10800BA
:10207000001BB700FFB108001CB20800214B08008C
:1020800020A10700C119080025B20800E97C08005A
:10209000957C080028B2080044B208004FB208003E
:1020A00055B2080067B208008FB20800A2B208005B
:1020B000BDB20800CCB20800E8B2080071130800F5
:1020C0006514080088BA0800FEB2080010B30800C2
:1020D00022B308002BB308004D7C080040B3080071
:1020E000FD4A0800A02526004CB308000548A0477B
:1020F000092005498847054B0548984772B0BDE857
:10210000F08100BF58B30800ED6F0800A97B0800FC
:10211000F8AE080010B586B000211822154B6846AD
:1021200098474FF40064C0234FF416508DE819000F
:10213000114C1248A0471248A047124A6946124B58
:10214000124898471148124988471048114A904749
:10215000094C1148A0471149114B0C4898471148A8
:10216000A04711488047C1B22029F1D00F48A047AD
:1021700006B010BDFB7B0800A97B080061B3080016
:1021800075B3080000BD0105D14A080000000A40EF
:10219000F14A0800F74A080009B1080093B30800A3
:1021A000214B080039B1080071130800F8AE08008F
:1021B00010B51D4888B01D4CA0470A211C48A047F7
:1021C0000A221C4B1C491D4898471C481C4988473B
:1021D0000020032200900F248DF80500039069462B
:1021E0001648184B8DF804208DF80740984716487C
:1021F000164A4FF4E01108240491069007928DF8D6
:1022000006400A4C1248A0476946124B0B489847B3
:102210001148A04711498847C0B22028F1D0104882
:10222000A04708B010BD00BF9FB30800A97B0800FD
:10223000AFB30800DD2D080000BD010500400B40D4
:10224000B52D0800E32C0800785634122143658729
:1022500009B10800572D080039B1080071130800B2
:10226000F8AE080070B53248CAB0324CA0473248C8
:10227000A047324B98470024002031498847013459
:1022800041F28832944203D10128F5D02D4805E06F
:102290002D4B9C4205D10128EED02C48254A904771
:1022A00043E00028E8D1234C2948A0472948A0470B
:1022B0002948804729482A492A4A904708B12A488C
:1022C00032E02A48A0472A48A0472A48A0472A487F
:1022D000A0472A4C2A4803A9A047012400B3294D4E
:1022E00003A806A9A847661E124D98B99DF81C615F
:1022F00036B106AA2146D2F808312348A84707E09C
:10230000489B06AA009321482146D2F80C31A847E1
:102310000134E4E71E4903A888471E483146A84710
:102320001448044CA0471C48A0474AB070BD00BFE9
:10233000D3B30800A97B0800E6B308006D040800C9
:102340008D04080000B4080090D0030018B4080001
:102350002DB4080041B40800915108008D190800FF
:102360005D190800D151080057B4080071B4080085
:1023700089B4080088BA0800A7B408000952080008
:10238000C2B4080081520800C4B40800DBB40800DD
:10239000C9520800F7B40800F8AE080008B50248B2
:1023A000024B984708BD00BF980B07206133080017
:1023B0002DE9FF41824C0025824802950395A047F4
:1023C0008148A047814B44209847814E8148B047BF
:1023D0008149442088477F48B0478048A0478048CB
:1023E000A04780482C46026842F010070760EFB211
:1023F0003946022202AB7B487B4EB047029B4FF628
:10240000FF718B420BD03946032203AB7548B047AE
:102410006B4C76482946029A039BA0472C4601350F
:10242000202DE4D17248664FB8473CB97148B8478F
:102430006C48036823F01002026066E1E4B240F2E7
:10244000E11304AE6C4D46F8083D21460422654870
:10245000A847DFF894812146002233466148C047EF
:102460000298214640F4445300225E480293A84754
:10247000029A214622F4806343F4007300225948F3
:102480000293A84721461F2233465648C047029967
:102490001F2221F08003534821460293A847574842
:1024A000B8476425012202AB4E4821464E4EB04744
:1024B0000298830679D54B4D2146012202AB4A4C46
:1024C0002846A0472B683E4C23F010012960029853
:1024D00010F0040F70D04A48A047B4274948A047DD
:1024E0000097C021A82201234748A0470026FF21CA
:1024F00000960A460B464548A047454A454B116899
:102500009088C3F80210444901275E70D8801A46AB
:102510002846424E1F700D60B047414B20224FF4B9
:10252000806183F82A23284659603E4A06213E4EA0
:10253000B0473E4B06212846984706213A46284692
:102540003B4F3C4DA847B8473B4880473B4A9047E4
:102550003B4B3C4E19785D789F78D8781A795B7937
:1025600031707570B770F07032717371364F374ECD
:10257000374B4BF201414AF6C00540F20110718021
:102580004FF6FF7235807880FF2632481A805E80D1
:102590003D80A0473048A0473048A0473048A0477A
:1025A0003048A0473048A0478BE03048084A904761
:1025B000013D7FF477AF7EE72D48A047A5E000BF3F
:1025C000A97B08001CB508003BB50800ED6F0800AA
:1025D00001000720C0C62D00D36F080067B50800B2
:1025E0007FB5080000000B400530080092B50800D8
:1025F000B7B50800CFB5080059300800E6B50800A7
:10260000FFB5080011B6080027B6080038B6080064
:10261000BBB80800B0520720980B0720A93008006B
:1026200000E100E000BD01056D2B0800BD29080098
:10263000855B080065290800C5670800195808006F
:10264000CC0007208651072084570720B857072061
:10265000B457072049B608005FB608007FB60800E7
:102660009BB60800C8B60800E5B60800C0D4010053
:102670000DB708004FF40060254EA789B047874288
:102680002CD040F60600A789B047874232D00024FC
:10269000204D742606FB04571F48204D0760204B31
:1026A000022098472A883AB11E4988471E4E1F4883
:1026B0001F492A880023B04701340A2CE8D11D4F56
:1026C000B847164D1A4C194821464FF4D2722B4682
:1026D000194FB84729880029D9D0CBE70120104BE2
:1026E00098472A88002AD2D00E4988470F482146A9
:1026F0002A8806E0114880472A88002AC7D00B485C
:1027000021460023084CA047C1E7BDE8FF8100BF78
:10271000B1660800E8520720E4520720D052072093
:10272000F95B0800FD680800D5320800980B072007
:10273000BC570720F5670800953108004D68080070
:1027400038B51848184CA0471848A047184D5D20C8
:10275000A847154C01461748A0475320A8470146F3
:102760001548A0475220A84701461448A0475120C9
:10277000A84701461248A0475020A84701461148E3
:10278000A0474F20A84701460F48A0470F48A04741
:102790000F48A0470F4B9847C0B22028D6D00E480C
:1027A000A04738BD21B70800A97B080039B7080049
:1027B000B76F08004CB7080057B7080062B70800A9
:1027C0006DB7080078B7080083B7080088BA08001A
:1027D0008EB7080071130800F8AE080030B5334B0F
:1027E00089B0186899880090314A3248ADF80410D1
:1027F000314C904731494FF47A7208233048A04752
:10280000304D2F4800214FF440120123A8472C4897
:1028100000212D4B984700241DF8041028482B4A0E
:1028200001349047062CF7D1012225480021284D7C
:10283000A84723484FF0FF31264B984720482649A8
:1028400088470024052C14D808AD2A1912F8205CFA
:102850001B482946214B9847C201F5D42946184800
:102860001F4A904708A901EB840545F8180C01346C
:10287000E8E7002402AA214652F8242019480C4D0A
:102880000134A847062CF5D11748A8471748A84790
:1028900017488047C3B2202B01D10024D4E7084851
:1028A000144988471448A84709B030BD54AE080001
:1028B000A97B0800D9B70800452C080000BD010518
:1028C00000000C40932C0800772C0800B92C08005D
:1028D000852C0800DF2C0800AD2C0800C32C080054
:1028E000CF2C0800E9B7080088BA0800F5B708003F
:1028F00071130800B32C0800F8AE080010B50E489C
:102900000E4CA0470E48A0470E48A0470E4B9847D4
:10291000792801D059280ED10C48A0470C480D4900
:102920008847002114220C4B0C4898470B480C2177
:1029300001220B4B984710BD36B80800A97B080050
:102940004DB8080084B8080071130800A0B808004A
:10295000C0C62D0001000720092F0800000A0E4004
:10296000192F0800F7B50368164643F010020260FD
:102970006B460122104D04460F46A847B8B900998E
:102980004B0705D4206820F010022260FF2012E0DF
:102990006EB120463946052201ABA84738B96368B5
:1029A00043F001026260616841F0020363602168E4
:1029B00021F010032360FEBD05300800F7B5036861
:1029C0004C4F43F0100202606B46002204460D4655
:1029D000B847024600284BD10098474E20F4B0413A
:1029E00041F48063204629460093B0470246002800
:1029F0003ED104222046294640F2E113B047024668
:102A0000002835D1204629466B46B84702460028A3
:102A10002ED1009B204643F4445329460093B047EF
:102A2000024628BB009820F4806141F400732046E0
:102A300029460093B0470246D0B9304E01222046C5
:102A400029466B462B4FB847024688B9009A930631
:102A500007D4013EF2D12368012223F01000206048
:102A600045E01E222046294601ABB847024620B168
:102A7000236823F01001216039E0019BD80507D4B9
:102A8000590607D413F0800F134604D0012103E048
:102A90000123FBE701231146206820F0100020608D
:102AA00019B1616841F0010002E0616821F00100A4
:102AB00060601BB1616841F0020002E0636823F0CE
:102AC00002006060D4F8C03043F001000C4BC4F841
:102AD000C000196841F008001860196841F004004E
:102AE0001860D3F8C01041F00200C3F8C0001046CF
:102AF000FEBD00BF053008005930080040420F00FD
:102B000000000B40F7B502684FF4004342F0100597
:102B100005600022134F04460E460193B8470A256C
:102B2000002201AB204631460F4FB847019B013DC3
:102B30001A0401D5002DF3D131461F2201AB2046E6
:102B4000B8470198314620F080031F222046054EE9
:102B50000193B0472168281C21F01002226018BFA1
:102B60000120FEBD5930080005300800F7B52C4B98
:102B700004462C4816460D4698472B4886424DD8A9
:102B80002A498E4209D82A4A964209D8294B9E42A0
:102B90008CBF4FF48066002604E04FF4406601E0ED
:102BA0004FF40066606802AB20F4406161606268C7
:102BB000164366602068002640F0100143F8046D5B
:102BC000216002221C4E20462946B047019B2E461A
:102BD000222B17D02027721C02F01F06204602224B
:102BE000314601ABDFF850C0E0470198222804D1FC
:102BF0003146124B1248984704E0013F17F0FF0797
:102C0000E9D1FF262168FF2E21F01002226005D0B5
:102C1000AE4203D020462946014B98470020FEBD16
:102C2000052B080000000B400068890900B4C404AB
:102C3000005A6202002D310105300800A97B08000E
:102C4000C1B8080030B50124046040F20225002418
:102C500044605200C0F82051C0F80441C0F814414B
:102C60004568B1FBF2F14A1E2B43110643EA1143BA
:102C70004360204630BD4368090101F01002134350
:102C8000436070474368D2011943D3B2194341608E
:102C9000704710B54468090622431B0701F07064B1
:102CA000224303F040510A43426010BD02230360F7
:102CB0007047012303607047012303FA01F10161AA
:102CC00070478369012000FA01F0184070470F290E
:102CD00003D8143150F821007047002070478162FA
:102CE000704770B50B790A7883B902F1100461015D
:102CF0004350441800EB42106360C0F80832C0F83B
:102D00001432C0F81832C0F81C3270BD02F1100441
:102D10006301C558CE7925F4702545EA0645C550AE
:102D20004D79C418CB6835B143F0005363600C692A
:102D300044F0005301E063600B6900EB4214103271
:102D4000C4F8083252018358097923F0E06343EA5A
:102D50000161815070BD30B50A7800EB4213D3F8A1
:102D6000104214F4000F8C6022D04D790C690DB123
:102D700044F00054C3F808428C695301C218C2F8E9
:102D800014428C79C018042C88BFCC6902F50475F4
:102D900088BFC2F818428979D0F81C220B0403F4CA
:102DA000702122F470221143C0F81C12002030BDA3
:102DB000012030BD30B5002489B005468DF80440AF
:102DC00008A941F8204D28466946034B013498472D
:102DD000082CF5D109B030BDE32C0800F8B546F257
:102DE000A81353430446481EC018B0FBF3F3802BCE
:102DF00001D90020F8BD4FF4FA505043B0EB510F09
:102E0000F7D84FF47A756A430823D5004FF0FF379F
:102E10001846B1FBF5F6802E06D805FB1616BE4205
:102E200002D23EB1374603460130C0B21A281544DB
:102E3000EFD100E003465A43B1FBF2F1C9B20129D8
:102E4000D7D91D4A0620083B00FB0323206801391F
:102E500020F0010222609878421E10015A7800F09A
:102E60007000013A120202F4E0621043DA781B7932
:102E7000013A02F0070210435A1E130303F44052B2
:102E80000B04104303F4FE02104360610B4920461B
:102E90008847236843F0010200232260194611F499
:102EA000001F074804D18342A3D021690133F6E70C
:102EB000181A18BF0120F8BDCFB80800B52D0800BA
:102EC000A0860100012343607047012303FA01F14A
:102ED00081627047012303FA01F1C1627047282320
:102EE00003FB01010A65704710B5436A282303FB01
:102EF000010114680023CC63506808644B64906837
:102F00008864D268CA6410BD120202F47063194367
:102F10000160002070470000A1F10E03012B10B5E5
:102F2000044613D90B48120203680B48C9B2036068
:102F30000A4822F07F42201A41F0B44118BF012014
:102F400011439847A36803F0060010BD4FF0FF300F
:102F500010BD00BF08001000C40B0720000A0E407F
:102F600003885A1C93B28B4234BF1946002101805A
:102F7000704770B50468C3682268866822F004014F
:102F80000022216042841946058C0831AA420AD2E7
:102F900006EBC21525F0030541F8085C002541F851
:102FA000045C0132F0E7681E53F8302042F0020161
:102FB00043F8301023F00303A36170BD70B590E8AF
:102FC00024001368016923F00804146000240485B8
:102FD000C4840B46868C0833B44209D24FF00046B5
:102FE00043F8085C43F8046C013405F2EE55F1E750
:102FF00001EBC6064FF0404021F0030146F8040CF7
:10300000D16170BD13B5846814F0040FFBD0C905FD
:1030100001F0786141F0C041920402F4F80241F4F9
:10302000003111430022416301928168490708D4AD
:10303000019A511C01910199064A9142F5D901204A
:1030400006E082685207FCD5406B81B2196000200F
:103050001CBD00BF3F420F0013B5846814F0040F7D
:10306000FBD0C9059BB201F07861920402F4F8022A
:1030700043F0804341F08051114343F400330B434C
:1030800000224363019281684B0708D4019B5A1CBC
:1030900001920199034B9942F5D9012000E00020EB
:1030A0001CBD00BF3F420F00002370B50360044603
:1030B0004FF0FF30E0620D4621681646072341F0CD
:1030C00020027720226023626061636A616841F4B4
:1030D0000832626033781BB1626842F0100102E08E
:1030E000606820F01001616073781BB1626842F083
:1030F000200102E0606820F020011F4B616023F096
:1031000007001E49A8601E4821F00702EA6020F06F
:1031100007011C4A102369601B492B84082022F0F8
:103120000703E961194A2B61A8842846904728467D
:10313000174B9847206840F008012160226842F050
:1031400004032360206843F6F44240F080012160CC
:10315000A26233797079B278190441EA0060F37899
:10316000104340EA0321C4F89810F079B27942EA9A
:103170000023C4F89C3070BD983B0720984307207B
:10318000080C0720C80B0720783B0720732F080086
:10319000BD2F08002DE9F04F9946438C85B00446B9
:1031A0009346ADF80E30C5688A46002900F0898044
:1031B000002005EBC305C9F8000080460746064617
:1031C0002968CB0739D56A68510417D5668CBDF8D4
:1031D0000E70B7420ED0E76804F1220057F836307F
:1031E00007EBC60523F0010247F83620218C374E45
:1031F000B047EBE757464FF0010800260DF10E00EF
:10320000218C324B9847B8F1000F4DD0BDF80E20FD
:10321000638C9A4213D1608CE26852F8301021F02E
:10322000010342F83030218C04F12200274A9047F4
:10323000BDF80E00618C8842EDD1032042E006F11A
:1032400080035B4588BFC6EB0B0329688CBF9BB22C
:1032500080231A46384621F00301DFF874C0019339
:10326000E0476B6801981A040744064423D5190502
:10327000080DC9F80000638CBDF80E209A420CD0EE
:10328000E06850F8332022F0010140F83310218C1F
:1032900004F122000D4B9847EDE7D9F800108E425B
:1032A00034BF042000200DE0286820F001012960CF
:1032B000BDF80E506584BDF80E50E26802EBC505FE
:1032C0007EE7052005B0BDE8F08F00BF612F080044
:1032D000E97B08002DE9F84F994640F2EE539A42F7
:1032E00004468A46154607682FD8E68CB4F828802D
:1032F000F343B4F824C0984498FBFCF30CFB13830D
:1033000000692BB300EBC608D4F81CB021B11AB188
:1033100050F83600104B98474BF82690A18CE28C61
:10332000481E824208BF45F0804545F40045C8F874
:10333000045004F12600A18C084B98473A680020FD
:1033400042F400713960BDE8F88F0520BDE8F88FC0
:103350000220BDE8F88F00BFE97B0800612F08005C
:10336000F0B5066885B0736A04460193306A02902E
:1033700071690391019A336B43F47F0040F4434138
:1033800022EA01020192019B9B0702D40298800766
:103390000ED50299029A11F0040F14BF06200220E4
:1033A000D10748BF40F001003062636903B198471C
:1033B0000198020602D403998B0661D5039D680724
:1033C00014D5238DE78CA28CF81AE76990FBF2F1F3
:1033D00002FB110507EB830720462A4B984730680C
:1033E00045F0040540F00802326000E02025039912
:1033F000039B8907039848BF45F00205DA0648BFDA
:1034000045F01005430648BF45F040057561E28C64
:10341000218D8A421DD0238D2269E06902EBC30110
:103420004A6800EB8307002A13DA50F823300BB107
:103430002846984704F12800A18C134A9047E08C55
:10344000218DA38C421A92FBF3F003FB102100297B
:10345000E1D1039A500703D53B680BB12846984742
:10346000E18C208DCA43A38C801890FBF3F103FB01
:10347000110294F82A00824202DBA36903B1984743
:1034800005B0F0BDBD2F0800612F080070B54FF0EA
:1034900080435D689C68D868D96980265A6D1E6033
:1034A0005D609C60D860D961002005215A6518656F
:1034B000196070BD01F03F031843CB0510B50AD564
:1034C0000B0502D540F4845005E08B044CBF40F45A
:1034D000865040F482504B0448BF40F400604FF0E7
:1034E00080431A6158614FF08042C804136C06D5BE
:1034F00013F41F0F06D00B4B9847002010BD13F498
:103500001B0FF7E7DA07EED58B0409D5064C4FF011
:103510008041013C086CEED000F03002202AF6D148
:10352000012010BD8D34080041420F0010B5152058
:10353000084CA0472720A0474FF0804372229A6092
:103540001120DA614FF4E0610522586559601A6074
:1035500010BD00BF4172080000280CBF04200020ED
:1035600070470120704700004FF080401BB1436D51
:1035700043F4807302E0436D23F48073436561B1CB
:1035800048000F490E4BB1FBF0F100FB01F0181A97
:1035900008B1013100E001B101394FF080435868B2
:1035A000043A20F0FF0058605868C9B20143D0B215
:1035B000042859609ABF0349085C0020D86070470E
:1035C00000BD01053BB9080070474FF080435A68C1
:1035D000002122F460504FF41062586019615A6162
:1035E0004FF08043186CC207FAD5704710B54FF002
:1035F00080430A465968044621F460505860002010
:10360000186521469861014B984710BDB5340800F4
:103610004FF08043186A704700F110024FF080436A
:103620001B6A190E0170190C4170190A8170C37060
:1036300004309042F2D1704770B504469DF81000F6
:103640000E464FF0804518B14FF48071296500E0B7
:10365000286569684FF0804041F4C0516960416855
:10366000950714BF41F4005121F4005114F4004FA8
:1036700041600CBF4FF4A0204FF48030E10307D528
:10368000D505ED0D4FF0804140F400108D6114E040
:1036900043EA02454FF080418D61A50302D540F415
:1036A00020100AE0610302D540F4801005E02503F4
:1036B00003D4E10248BF40F40020064900250D6014
:1036C00005490A80054A214613803246044B984733
:1036D00070BD00BF1C440720184407201A4407206F
:1036E000B534080008B54FF08042116C104B0B4008
:1036F0001BB1104A9047002008BD8907F3D5126B13
:1037000002600D480D4A01680B1D0D4903601088C9
:103710000A885043984208D84FF08043186C0449F7
:1037200001400029E5D10301F6D5012008BD00BF05
:10373000000060C08D3408001C4407201A44072094
:103740001844072070B51D4B06461D884FF0804079
:103750004D43416886B08A0404D416F0030418BFB0
:10376000012400E00124164A16489047154800211C
:10377000154B984713480021144A154B9847154894
:10378000029601900CB1ACB203E0C5F38F0141F099
:103790000854114A039400240492214601AA0F4BB5
:1037A000084805949847214606480D4A90470D4819
:1037B00001686D180560012006B070BD184407202F
:1037C000C52E080000400C40D52E08000002010163
:1037D000DF2E08003000004000005142E92E0800B2
:1037E000CB2E08001C44072008B50E4A0E4B11884A
:1037F00018880E4B414318684FF08042136C0C4AF6
:103800001A403AB10B4988470B4800210B4B9847A7
:10381000002008BD814201D99A0101D41B01EBD5DA
:10382000012008BD184407201A4407201C44072023
:10383000000060C08D34080000400C40D52E080008
:1038400070B51B4B06461D884FF080404D434168C4
:1038500086B0890404D416F0030418BF012400E0E4
:1038600001241448144A904712480021134A144B6B
:1038700098471448019602900CB1ACB203E0C5F32E
:103880008F0141F00854104A039400240492214609
:1038900001AA0E4B074805949847214605480C4A53
:1038A00090470C4801686D180560012006B070BD96
:1038B0001844072000400C40C52E080000200101DC
:1038C000DF2E08003400004000003160E92E0800BF
:1038D000CB2E08001C44072008B50E4A0E4B118859
:1038E00018880E4B414318684FF08042136C0C4A05
:1038F0001A403AB10B4988470B4800210B4B9847B7
:10390000002008BD814201D99A0101D49B06EBD564
:10391000012008BD184407201A4407201C44072032
:10392000000060C08D34080000400C40D52E080017
:103930000823202104220360016002607047000018
:103940000E4B994217D84900B2FBF1F2043A00231A
:10395000FF2A04D9072B02D001335208F8E71B04D1
:10396000110603F4E02343EA1141D2B241EA020313
:103970000361002070470120704700BF801A0600D5
:1039800038B54FF0FF3383620D468021036A016032
:10399000036B082220230421026003600160696830
:1039A0002A68064B04469847697A421E50425041A5
:1039B000012901D14023236038BD00BF41390800EF
:1039C00070B5CA688D68002A34D0002343604C6803
:1039D000260206F440740E7C44F48054360406F447
:1039E000FE0634434460C3604C685CB1012C0B7824
:1039F00009DD4E78022C46EA032304D0897841EA97
:103A0000032300E023460121C3600160036AD90556
:103A100012D4012A01D1022101609907F6D5036B66
:103A2000013A05F8013BF1D1016ACA07FCD5036AE6
:103A3000002070BD012070BD052070BD70B5CD683F
:103A40008A68002D34D0002343600E7C340404F4D3
:103A5000FE064C68240204F4407434434460C3609E
:103A60004C685CB1012C0B7809DD4E78022C46EADB
:103A7000032304D0897841EA032300E02346C3608E
:103A80005519AA4208D0036AD90513D45B07FAD5A1
:103A900012F8011B4163F4E7026AD1050AD4520708
:103AA000FAD502210160036ADB07FCD5002070BD56
:103AB000012070BD052070BD7FB5002306AA02F865
:103AC000153D03928DF8141001228DF804300293F5
:103AD00001A9024B0492984707B000BD3D3A080087
:103AE000EFF3108072B6BFF35F8F0022811A024B92
:103AF00048421A704841704764010720034B04494B
:103B000005224FF400201A70086070476D440720AA
:103B1000F0C10A4008B5024B186900B1804708BDE2
:103B2000B852072028B1034B01221A70BFF35F8FF0
:103B300062B670476401072010B50B4B0446187835
:103B400034B970B109488047094B9A78511E05E095
:103B500038B906498847064B9A78511C9970054B2D
:103B6000984701490C7010BD6C440720E13A0800E9
:103B7000A4520720253B080008B5094B984709497E
:103B800001220A60084B9847084A02201060084842
:103B9000084A0023036143618381137008BD00BF9D
:103BA000E13A080020C20A40253B080060C10A40F3
:103BB000B85207206D44072008B5084B0322084877
:103BC0001A7080470749084B01220A601A600822D0
:103BD0000A601A600549884708BD00BF6D44072088
:103BE000E13A080060C10A40F0C10A40253B0800E4
:103BF00070B5344B9847344901220A60334B9847DB
:103C000033480278032A04D1324880473249884732
:103C100070BD324E324D3388AC89E11A8CB2DCB9BA
:103C2000304802889B1899B20180E888884202D007
:103C30002D4A137853B1264B042222481A7080472C
:103C40002A4A10211160C2F8901037E0696951B119
:103C5000884740B13480AC893F2C04D9224E0025DE
:103C60003570402402E0204A012010701B4B1C4993
:103C700014481D888E6880471D4B761919680246C6
:103C8000890705D5114A904711490420087070BD75
:103C90001848C3B2A34208D2311801F15F4303F5BB
:103CA00068010B7800F8013BF3E7104B0B4901204A
:103CB00064190C801860C3F890001046034B9847B5
:103CC00070BD00BFE13A080020C20A40253B080051
:103CD0006D440720153B0800793B08006E4407201F
:103CE000B85207206A4407207044072060C10A4088
:103CF00030C10A400000182010B5047D0346E007DB
:103D00000ED56FF300041C751C684CB1054850F8C3
:103D10002200C00548BF42F0800208469968A047CB
:103D200010BD00BF00C10A402DE9F843444B00F12B
:103D3000FF39182505FB09350446287DC0077DD5C8
:103D4000EA68AE68B24252D0B61AB6F5803F01D8E2
:103D5000370402E04FF4803600273A4B53F8241022
:103D6000C9050FD553F824000821C0F3021301FA46
:103D700003F0431E1E4216D00F43297D6FF341010D
:103D8000297510E053F82400C0F3C121012908D19E
:103D900053F824300821C3F3021001FA00F39E42C5
:103DA00001D847F014076B68DFF8B8802001804421
:103DB0009A18C8F8042024498847D8F80C30DB0644
:103DC00011D447F02107C8F80870EB684FF0007174
:103DD0009A19EA6001FA09F21C4B2E611C499A619A
:103DE0008847BDE8F8831A4A9047E868A8601549F3
:103DF00051F82430D9051CD52A7D02F00200C1B249
:103E0000B9B1144A012042F82400303A52F8241083
:103E1000114ACB0348BF114B0C4948BF43F824005B
:103E200042F824004FF4805000FA04F48C61BDE89D
:103E3000F883284600212246094B9847BDE8F883BD
:103E40002044072000C10A40E13A080000C00A40AF
:103E5000253B080060C10A40F0C10A4090C10A40F9
:103E6000F93C080000C30A4010B5444B9847444948
:103E700004462820884743488047434B50224FF44C
:103E8000807183F828234FF4802059603F4B984776
:103E90003F4BD3F8000820F08072C3F80028D3F815
:103EA000001841F00070C3F80008D3F8002822F091
:103EB0008071C3F80018D3F8000840F48052C3F8AA
:103EC0000028D3F8001841F40040C3F800081A682D
:103ED00022F480511960186840F440621A60D3F8E7
:103EE000001821F48040C3F80008D3F80418284AC9
:103EF0004804FAD5274B187D00F0FE0193F82C00FA
:103F00006FF38201197500F0FE0193F844006FF31E
:103F1000820183F82C1000F0FE016FF3820183F818
:103F200044100223C2F80838D2F8040801051849E1
:103F300048BFC2F80C38D1F8002842F00203C1F89B
:103F40000038D1F8000840F480421348C1F8002836
:103F5000037863B90122027010480370074B984739
:103F60000F49CA78531CCB700E49884702E00020E5
:103F70000D49884720460B4A904710BDE13A08009A
:103F800041720800D16B080000E100E0A572080052
:103F900000C00A4020440720684407206C440720E2
:103FA000A4520720253B0800393B080070B5174B89
:103FB000984717490646012088471648D0F8002838
:103FC000054622F48044C0F80048D5F80418114B87
:103FD0004C04FAD51868012120F480721A60082573
:103FE0001022042402209D6199619A619C619D6068
:103FF0009C609860D9609A60D3F80018304641F40C
:104000008042C3F80028044B984770BDE13A08008D
:10401000393B080000C00A40253B080008B50A4BA0
:10402000D3F8002822F48040C3F80008196841F44E
:1040300080721A60D3F8000840F48041C3F8001879
:104040000020024B984708BD00C00A40393B0800D9
:10405000F8B5864B9847864A48B9506810F0010178
:1040600005D172B6BFF35F8F82480170F8BD526808
:104070007F4B510708D504229A60D3F8041811F435
:10408000405F40F0248204E05868820704D5022093
:104090009860794B9847F8BD5C68E40440F1408132
:1040A0007649102308220B600A60F03908680C4634
:1040B00010F0040F46D0724A13781BB17148804744
:1040C000714988472268C2F30A53082B04D06F4B0A
:1040D000984704226E4BB7E06E4E16F8014F6E4DB6
:1040E0006E4B701900F15F4101F568029E42147039
:1040F000F3D16B4EB047664C042618B9634A90471B
:104100002660F8BD266095F90000002808DA654AA7
:10411000654B00201080188059480221017018E07A
:10412000E98800295DD0604B5E4A0025544915801E
:104130001D800120102508705C4A256090475C4B6B
:104140001D606CE00968C80705D55A4B1A68D1078D
:1041500001D55948E2E0594B1868820762D54848B2
:104160000178012909D0022901D0042901D145494A
:1041700000E0464988474448D0E04B4A1C6846481E
:1041800012888189C4F30A53D418A1428068B8BF49
:10419000C2EB01034A499BB28418C8B2984206D2C6
:1041A00011F8015B4748661830180570F5E7991853
:1041B0003D4C8AB2402B2280374B05D1394DD888EF
:1041C0002988891888420EDC9A815B69304C33B1AA
:1041D000984720B92D48804702212160F8BD02226E
:1041E000226039489AE0988990420FD15A69284E46
:1041F0000AB1904720B92548804702213160F8BDB7
:1042000021882B880022C818288022802049022477
:104210000C6010240C60254B9847254A14602B49EC
:104220008847F8BD1968080710D5194A0821116098
:104230001B68D90700F14B8111480178032940F030
:1042400046811B4B4FF400221A60F8BD1A68D20653
:1042500066D50F49102008601B689B0700F1378165
:10426000074A10780128BCD00428E8E7BD7208008E
:1042700000C00A4064010720FD15080020C20A4062
:104280006D440720153B0800793B0800FD3A080003
:1042900060C10A40FFFF1720B8520720070018200E
:1042A000311608006A4407206E440720E13A0800EE
:1042B000F0C10A40C0C10A40F13B080030C10A40C9
:1042C00000001820FFFFE7DFB93B0800253B08008E
:1042D0001969C90700F18D807D4B18691A4610F0E5
:1042E000100F40F0DB80D2F80408794B820740F1D0
:1042F000EE80D3F80028022022F48041C3F8001891
:10430000C3F80808D3F8002842F48041C3F8001825
:10431000D3F8043818054CBF6E486F488047F8BD85
:104320006E4C01216E4E4D1E182707FB05604FF0A5
:10433000007707FA05F5664BCAB21E69354215D0FB
:104340005E68354212D0674914016118CC6814F0D8
:10435000010F40F0BC805D61CB681B0C03D0C168CD
:10436000CB1AC360836010465F4B57E04FF4805612
:1043700006FA01F61B691E4236D0D4F890708B0005
:1043800017F0010F04F190050FD0276817F0010F07
:104390000BD05649564D01245C505C514FF480447B
:1043A0005C500021534B9847F8BD2A68D2041BD5B6
:1043B0002568C5F30135BDB94C4A4FF48051995079
:1043C000A2F508714E61027D65F3820202754A48CA
:1043D000195821F400721A504FF40021F0304FF4B4
:1043E000802219501A50F8BD01310434042999D1A2
:1043F00016E05A68D2077FF56FAFD3F8002822F491
:104400008041C3F80018012210215A619961D3F844
:10441000002842F48041C3F80018384B9847F8BD93
:104420002B4B586810F008003FF452AF08249C60F2
:1044300000212B4A4C1C182000FB01202D4B012190
:10444000E2B29847032C2146F3D12D4CA047204CD3
:10445000206820F07F0222602368274843F0800113
:104460002160026822F4CB5323F01C0141F030029A
:104470000260036843F002010160E069214B40F0F3
:104480000102E26198472049042202230A600B607E
:104490004FF48051A1611D4A90476CE65968C806E7
:1044A0007FF521AFD3F8002822F48041C3F800182B
:1044B000074BD3F804081A4610F4804F02D159680C
:1044C000C907F5D51023012053619061A5E7F8BD18
:1044D00000C00A40AD3F08001D40080034C10A403A
:1044E0002044072000C30A40293D080020C20A409A
:1044F00060C10A40F93C080000C10A40393B08008D
:10450000BD150800E13A0800F0C10A40253B08004B
:1045100000207047084B00F07F001A6822F08001ED
:1045200019601A6822F07F0140EA01021A601868D7
:1045300040F080011960704700C00A40024B1868C3
:1045400000F07F00704700BF00C00A40024B186AAD
:10455000C0F3CA00704700BF00C00A40024B186A8F
:104560008104880C704700BF00C00A40014B98606E
:1045700099817047B852072000F00F02032A10B546
:104580001CD8012101FA02F40D4BD86920EA04007D
:10459000D86103F5807353F8220020F0020443F839
:1045A0002240084B501E182404FB0034064B2046C2
:1045B0009847217D6FF382012175103410BD00BF33
:1045C00000C00A4020440720F93C0800034B00F0DB
:1045D0000F0053F82010C1F3C0407047C0C10A401B
:1045E00070B500F00F04032C06463FD8214B53F85A
:1045F000240001033CD42049621E182505FB021546
:104600002B7D03F00400C0B2002831D1DA0730D48A
:104610001A4A90473306024614D5194951F82430F6
:1046200013F4405F0ED02A7D4FF4805342F0040112
:10463000144A297542F8243003FA04F4A2F5F871FB
:104640008C6110E0104850F8241021F4007340F8F9
:1046500024304021603040F824104FF40023903083
:1046600040F824301046094B984701E0002070BD07
:10467000012070BDC0C10A4020440720E13A080073
:1046800030C10A40F0C10A4000C10A40253B080081
:1046900000F00F00032838B545D8431E18225A43AE
:1046A00022498B181D7D05F00404E4B26CB16FF350
:1046B00082051D751E4D4FF4805445F8204004FAC4
:1046C00000F4A5F508756C6101241A4D55F82050C9
:1046D00015F4002F1BD0184C54F820506C0608D548
:1046E000164C402544F820504FF48025903444F86F
:1046F00020500F4C4FF4002544F82050A4F590743E
:1047000054F8205045F4007544F8205000E044B1BE
:10471000187D10F0010F04D06FF300001875895850
:104720008847012038BD002038BD00BF2044072045
:1047300020C20A40C0C10A4030C10A4060C10A40DC
:104740002DE9F74F00F00F0ABAF1030F01919346DC
:104750001E4643D8012505FA0AF0224AD1690840CD
:104760003DD0214B53F82A2012F4002036D10AF113
:10477000FF3418276743DFF8808008EB070494F8BC
:10478000149009F004015FFA81F9B9F1000F26D104
:1047900016488047227D164B12EA050101D0984742
:1047A0001CE042F00102227500919847C4F804B061
:1047B000A66000980C99019BE060206148F8071002
:1047C0001BB9D6F1010538BF0025227D504665F39F
:1047D0004102227507498847012000E00020BDE81A
:1047E000FE8F00BF00C00A40C0C10A40E13A080085
:1047F000253B0800293D0800204407202DE9F74308
:1048000000F00F04032C00F2BB805F4BDD69012335
:1048100003FA04F62E4040F0B38011F0030500F0D7
:10482000AF80022D03D9032D40F0AA8000E01E4680
:10483000564DC90255F8247000F0800027F4CB5380
:1048400023F01C0701F4C053C1B2002914BF4FF478
:1048500080700020A2F5806189B2B1F57C4F04D34D
:10486000082A05D951004A1E03E040F2FF7200E019
:104870000F22B60006F00C01012606FA04F6B2FA81
:1048800082F219430143C2F11C0341EA031041F6CD
:104890007C1202403A4345F82420B6B20323D9B231
:1048A000A14215D9012101FA03F1374AD069014229
:1048B0000CD0D0690E4320EA0101D161344AB6B26E
:1048C00098188200116821F002001060013BE6E7B1
:1048D00046FA04F3DB0705D40134E4B2042CF7D123
:1048E00001204EE04FF0010808FA04F8651E182771
:1048F0006F432849254ACD19287D00F0010C6FF33C
:1049000000002875A0008218136843F002031360AA
:104910001D4BD3F81C9048EA0908C3F81C8003F526
:104920009873C018036858030BD42B6843B31068FE
:10493000C10548BF44F08004E96801202246984739
:104940001EE0106840F400731360BCF1000FC3D088
:10495000E8682B6995F814E0C31AEB601268C9592E
:10496000D2056A68AD684CBF44F0800020460091D3
:10497000D218CEF34001EB1A074DA8470028ABD15F
:104980000020BDE8FE8300BF00C00A4000C10A400D
:1049900040B00210204407204147080000F00F02F9
:1049A00070B54FF00073561E03FA06F31349140155
:1049B0004B61134BE31800249C604FF4805303FABF
:1049C00002F34B61030607D40E4B182101FB06309E
:1049D00001210D4B984770BD0C480D4C93001918E0
:1049E0001C19086810F4405FEED04FF400552560A4
:1049F00008481D1828688004FAD4F2E700C00A406D
:104A000000C30A4020440720F93C080030C10A4096
:104A1000F0C10A40C0C10A40B2EB011F30B534BF3B
:104A2000082410246143D20002EB5103B3FBF1F1DF
:104A3000CB085D1E4FF6FE7295420CD8082C03D1B0
:104A4000426842F40022426001F0070143EA014358
:104A50000362002030BD012030BD0000084B002162
:104A60008822C0F8E4304160242341628162026000
:104A70004FF480714FF400220360016002607047C0
:104A800000415355F8B50F4B0F4E05460C461746DF
:104A90009847002030600CB90120F8BD28462168F5
:104AA0003A460A4B98470028F6D1A268616842EA64
:104AB00001032269E16813436A680B4333601343BF
:104AC0006B60F8BD5D4A080074440720194A08006D
:104AD00010B5064B0446984730B9616821F00F02C3
:104AE00042F00103636010BD012010BD854A08003B
:104AF00040230360704710230360704743699A079F
:104B000004D5C905CA0DC261002070470120704755
:104B100043699B07FCD5C905CA0DC26100207047D7
:104B200038B505464C1E14F8011F19B12846024B32
:104B30009847F8E738BD00BF114B08004369DA0712
:104B400005D58069C205D30D0B6000207047012098
:104B5000704700002DE9F84F4FF0FF330025044661
:104B6000C0F84032C0F8445245628A498847236BF6
:104B70001BB94FF0FF30BDE8F88F04F1400628461E
:104B80003146012298470028F3D0B4F83E024AF695
:104B90005522904203D06FF00200BDE8F88F94F8E0
:104BA0003F1294F83E3203EB0122824210D194F876
:104BB00002020F2809D843B2012101FA03F14DF690
:104BC00060020A4042B9CA0715D4062804D912E087
:104BD0006FF00300BDE8F88F94F8083294F80912DA
:104BE0001A0402EB016094F8061294F807224318A5
:104BF00003EB022000E00020E061236BE069314616
:104C0000012298470028B4D094F84C0094F84B1037
:104C100001EB0022B2F5007F40F0B38094F852C05F
:104C200094F851B094F84F6094F84E5094F857802F
:104C300094F8561094F84D300BEB0C2705EB062931
:104C4000BFB211EB082223701FFA89F994F85000C3
:104C5000278501D0226211E094F866E094F867A0FD
:104C60004FEA0E4808EB0A6194F864A001EB0A0EC3
:104C700094F865100EEB0128C4F8208094F86E10AB
:104C800094F86FA04FEA014E0EEB0A6894F86CA0FE
:104C900094F86DE008EB0A0101EB0E2894F871A07E
:104CA00094F870107F0101EB0A2E216AC4F8088085
:104CB00001FB00F807F2FF114F12E169276109EBD0
:104CC000010707EB0801A4F818E0676194F83FE2D8
:104CD00094F83E7209EB080A07EB0E284AF65527AE
:104CE000B845C4F80CA061607FF455AF0BEB0C2CF9
:104CF0004FEA4C1101F2FF1E4FF400779EFBF7FCC8
:104D00006AB994F8662094F86710170407EB0162FB
:104D100094F86410571894F8652007EB022294F871
:104D2000541094F8537017EB01210DD194F86210D0
:104D300094F86370090401EB076194F86070C91975
:104D400094F8617001EB072105EB0625654400FB33
:104D500002500A1ACBB1B2FBF3F340F6F4718B4266
:104D600013D901F5704083424FF0000004D8A060D1
:104D700084F82D00BDE8F88F012284F82D20BDE8CD
:104D8000F88F6FF00100BDE8F88F6FF00400BDE808
:104D9000F88F00BFDD56080090F82D2043680239D7
:104DA00012B9028D03EB1213007800FB013070473B
:104DB0002DE9F0411E4690F82D3004465BB951B9FB
:104DC00001698A4202D30020BDE8F081C068E3692E
:104DD000C118881813E020780025B2FBF0F700FB1B
:104DE0001728BD4205D020460F4B98470135014694
:104DF000F7E7481CE7D020460C4A9047404416B1DC
:104E0000236B314608E0D4F84022904208D0236B4F
:104E1000C4F8400204F1400101229847BDE8F08146
:104E20000120BDE8F08100BF19570800994D080026
:104E3000806870472DE9F04FC7B080468B46994691
:104E400004A801213F4B9246984700273A46404626
:104E5000594600233C4C0137A04700286FD000265C
:104E600006F14004444420463849884718B1214699
:104E700004A8374C06E02046364A904720B1314C12
:104E800004A80021A04755E0334D04A82146A847B7
:104E9000054688B104A8314A90475146304B98479F
:104EA0000028ECD0484604F1200254F8041B944238
:104EB00040F8041BF9D13BE020462A4B98470028D4
:104EC00038D0684629460D22274B9847605D0DF87B
:104ED00005000135082DF9D1627A217A202A8DF852
:104EE00009108DF80A2004D1B1F1200018BF01206B
:104EF00000E00120A17A20298DF80B1000D130B1FB
:104F00009DF800302E2B01D02E2100E020218DF8BD
:104F1000081068465146124A90470028AFD04846CC
:104F200004F1200354F8041B9C4240F8041BF9D1FF
:104F3000012004E02036B6F5007F91D186E747B026
:104F4000BDE8F08FCD520800B14D0800795308003C
:104F5000F15208008B530800A95308005953080068
:104F600005550800D5530800FB7B080000234A6064
:104F70000B600B72704700002DE9F043C7B081460B
:104F80000E4604A80021464B1546984748467168CE
:104F900032680023434CA04700287DD0377A0F2F7A
:104FA00074D809EB4714403420463F4B984780465D
:104FB00018B1214604A83D4C06E020463C498847EC
:104FC00020B1374C04A84146A0475CE004A8214624
:104FD000384A9047804648B104A83749884740F28C
:104FE00003120146354B2846984735E02046344B9E
:104FF0009847002847D004A84146294A904741468F
:1050000068460D222F4B98474146605C0DF8010021
:1050100001310829F9D1637A227A202B8DF80920F1
:105020008DF80A3004D1B2F1200018BF012000E051
:105030000120A27A202A8DF80B2000D130B19DF8F2
:1050400000102E2901D02E2200E020222846694699
:105050001D4B8DF80820984720461C4A904718B1F0
:10506000012085F8040101E085F80401E1690137B8
:10507000C5F80C11A28A638B43EA0240C5F8080107
:105080003772012008E00137FFB288E7306800225C
:10509000411C3160327279E747B0BDE8F08300BF50
:1050A000CD520800B14D080079530800F1520800B4
:1050B0008B530800A953080059530800BF7C08000F
:1050C000D5530800FB7B0800ED550800F753080096
:1050D000436883B9036823B9016041600B604B608A
:1050E00070471A6881E80C001A680AB9016000E08C
:1050F0005160196070470B605A684A605A680AB973
:10510000416000E011605960704700002DE9F041F6
:10511000194BCAB0064619480F4698471849054624
:105120003046884700248046A04520DB3046214693
:1051300009AA4FF48273DFF854C0E047013001D16F
:10514000002016E029460D4809AA01AB0D4DA847DD
:105150000028F5D001A80C4A90470028F0D0BDF8EF
:105160001850BDF81E00013400EB0545DCE73D603A
:1051700001204AB0BDE8F081314E08008444072088
:1051800041540800354E0800F753080085540800C4
:1051900038B5094C094A002320460949094D636086
:1051A000236053601360A84720460749A847074972
:1051B0000120086038BD00BF7451072078440720E3
:1051C000244D0720D1500800685107207051072056
:1051D00038B5084B044618680D4608B90649884793
:1051E0000648074A04634563904710B9054B0121FF
:1051F000196038BD70510720915108008444072080
:10520000554B08008044072037B5054615480C4625
:1052100001684FF0FF33019309B9134A9047134BCC
:10522000986B00B18047284611498847013004D166
:105230000E48104B9847019004E0284601A90E4AF9
:10524000904720B109482146019A0C4B98470748DE
:10525000C16B01B18847019AB2F1FF3F14BF2046EC
:1052600000203EBD70510720915108008444072062
:1052700041540800314E08000D5108006D4F0800E0
:1052800070B50D4B064618680D4608B90B4988479E
:105290000B4CA26B02B190472A460948094D314692
:1052A000A847E36B054603B19847002D0CBF4FF0AC
:1052B000FF30002070BD00BF7051072091510800E1
:1052C00084440720794F08000020704738B5002437
:1052D000054680F8054141B10D2202FB0450002132
:1052E000024B01349847142CF6D138BDFB7B0800E3
:1052F00010B50B7803F01F03142B2CD85BB390F878
:1053000005210AB980F80531013B0D225A434C783A
:1053100083188454C87858704A799A70C879D870BC
:105320004A7A1A71887B58710A7C9A71887CD87184
:105330000A7D1A72887D58720A7E9A72087F00224E
:10534000D872897F1973985CFF2801D12021995464
:1053500001320D2AF7D110BD90F80531142B03D17D
:10536000002380F80431704723B10D2253430021FC
:10537000C154704703707047C07A00F00F01B1F15B
:105380000F035A4252EB03007047037853B1E52BE9
:1053900008D0C07A082805D010F0060F0CBF0020F6
:1053A0000120704701207047CA7A0F2A10D00B786D
:1053B00063B1E52B0CD0082A0AD012F0060F07D1F2
:1053C00090F80501003018BF01207047184670475B
:1053D00000207047C37A0F2B0BD0007850B1E5281E
:1053E00007D0082B05D013F0060F14BF00200120B2
:1053F000704700207047C07AC0F300107047F0B5C6
:105400000023934219D0C55CCC5CA5F14106192E4E
:1054100098BF05F12007A4F1410694BFFFB22F46C3
:10542000192E9ABF04F12006F6B22646BE1B05D1FE
:1054300025B10133002CE4D100E000263046F0BD58
:1054400010B5E0B101782F2902D10130002310E01E
:1054500043783A2B02D081785C2910D103305C214B
:10546000F4E714781046013214B18C42F9D1104699
:10547000013302780AB10246F3E7581E10BD4FF01F
:10548000FF3010BD2DE9F0478A46164699460028A0
:1054900032D0002B30DD90F80080B8F12F0F01D111
:1054A000471C08E043783A2B02D081785C2923D14D
:1054B000C71C4FF05C08124A002438469047254626
:1054C000224685420EDA7B5D434501D1013207E079
:1054D000524505D109F1FF318C42BCBF335501342F
:1054E0000135EEE700233355307898420CBF4FF07A
:1054F000FF301846BDE8F0874FF0FF30BDE8F08779
:10550000AF7C08002DE9F74F06460D46471E4FF0C9
:10551000FF3417F8012F22B12E2A08BFC6EB07046B
:10552000F7E7681E4FF0FF3810F8017F27B12E2FE4
:1055300008BFC5EB0008F7E7621C0AD1B8F1FF3FCE
:105540004BD1284F3046B84704462846B847034653
:1055500019E0B8F1FF3F40D0224B04F1010BB344F6
:1055600001935846984708F10109A94482460199D8
:1055700048468847824530D15846494652461A4BDC
:10558000984750BB4346621EB718204622462CB1AE
:10559000391A11F804C0BCF1200F04D0581E1C4663
:1055A0002F1819460CE00A19921B013CEFE7381B33
:1055B00010F803E0BEF1200F04D1C118491B013BD4
:1055C000002BF4D18A420AD130462946064B98472F
:1055D000D0F1010038BF002002E0384600E0002092
:1055E000BDE8FE8FAF7C0800FF53080010B50139FD
:1055F000002211F8013F6BB10B2A0BDC202BF8D0F5
:10560000A3F14104192C01D82033DBB200F8013B8F
:105610000132EEE700210170012010BD38B5456B65
:1056200003460C4625B90020C4F80402012038BD09
:10563000D1F80002DA691B6A821A511C994288BFAC
:10564000C2EB0302214698BF0122A8470028EAD1F5
:1056500038BD0000F8B5D0F8505206460F46002479
:105660009DB1D5F80002874202D3421C97422CD349
:10567000D5F80C322BB914B1C4F80C3201E0C6F8DD
:1056800050422C46D5F80C52EAE7D6F85032C4F80E
:105690000C32C6F85042D4F8040228B1D4B13046D6
:1056A00021460D4A9047A8B1C4F80072336B3846C2
:1056B00021460122984720B94FF0FF31C4F800126B
:1056C00008E0C4F80842254604E0391A05EB4120F9
:1056D000C5F808022846F8BD1D56080070B54FF001
:1056E000FF33002500F515760446C0F85434C0F8A1
:1056F0005052C0F85854294630464FF40072054BBA
:105700009847D4F85002C4F85C54C4F86004C4F854
:10571000506270BDFB7B080070B590F82D300646D6
:10572000002914BF0C4602240BB9250A00E0E50944
:105730007169304669181B4A904700282FD096F8A7
:105740002D10D0F8083281B92D02641B6204140CAC
:10575000181941781B5D03EB0120A0F57F42F83A50
:10576000072A98BF4FF0FF3070BDED01641BA00405
:10577000040C1A199078D1781B5D000400EB0160CD
:105780005278C11801EB022020F0704303F1704100
:10579000083107298CBF18464FF0FF3070BD4FF01D
:1057A000FF3070BD5556080010B5D4B004461449FA
:1057B00001A840F24B12134B984720885E2804D072
:1057C0005F280FD0B8B95E2121800F4A01A8904709
:1057D00001A902460D4B2046984708B900200DE06C
:1057E0005F20208020460A21094A90470028F5D0F2
:1057F000084B1021197000202080022054B010BDE9
:1058000040B90800E97B0800AF7C0800F5580800A3
:1058100071590800DC52072008B54FF4A040014B35
:10582000984708BDC95B080010B50948094B0278C4
:10583000196802F04003D8B201F11C0420B12046DF
:1058400040310A22044B984720460449884710BD3E
:10585000DC520720E4520720455A0800A9570800E7
:1058600010B590F820300446062B05D10A4801787F
:1058700001F00402D0B268B1084B228A1868084BC4
:10588000418A60688A4298BF11469847062184F889
:105890002010012010BD00BFDC520720E452072079
:1058A000BD66080010B590F82030062B19D10F49BD
:1058B0000A7812F0010316D00D4C038A2168426861
:1058C0004C8AA34205D91B1B0382498A52184260A5
:1058D00003E0D318002143600182012380F82030C7
:1058E00001E0002010BD184610BD00BFDC520720AB
:1058F000E452072038B54388044613B1CF2B1AD1A0
:105900000BE012B94280012038BD4160028280F86C
:105910002030208A68B1CF226280094D2046A847F6
:10592000084B0546204698472840C0B20028F0D1D1
:1059300004E084F8200000216180022038BD00BF0F
:10594000A558080061580800438A6BB990F82020D8
:10595000022A04D1032280F8202018467047034809
:105960000178C1F34000704701207047DC520720E6
:1059700070B5438804460D4623B140F21B12934292
:1059800055D108E0808BE16820836161638A83B927
:1059900040F21B126280204627498847002849D0E0
:1059A000264B2749022084F820001A680888A26044
:1059B000608204F1140204F1080304F112009188DA
:1059C000A9B1018899B119681668097831701E6803
:1059D00001361E601668013616600688013E068094
:1059E0009688013EA9429680E9D1022011E0628AA0
:1059F00072B1028852B11968013A097802801A68B6
:105A00000132A9421A60F4D1032002E0012000E033
:105A1000104600F00203D8B20028B7D0228BA18B29
:105A20008A4204D1002084F82000608070BD0023E9
:105A30006380022070BD00BF49590800E052072072
:105A4000D0520720002380F820304382C160C26119
:105A50004161028303804380704710B5013A8A1880
:105A600091420CD20C784B7803EB04239BB21818AC
:105A700080B2984201D2431C98B20231F0E707D1BC
:105A80000B781902081880B2884201D2421C90B2E9
:105A900010BD000070B5C478124B0A19D4B2DC7086
:105AA00085780E0A7219D2B29A704578B2425D704A
:105AB0000078187005D20135EDB25D700DB9013076
:105AC0001870C9B28C420CDA531C0648DAB28270E4
:105AD0003AB941784B1CDAB2427012B901784B1CCA
:105AE000037070BDD852072010B5084C01462068DD
:105AF000074B08309847074A20681178537801729D
:105B00009178D27843728172C27210BDE45207203C
:105B1000955A0800D852072008B5002006491422DB
:105B2000064B984720B1010A41EA002080B208BD27
:105B30004FF6FF7008BD00BFCA5707205B5A080028
:105B400070B50E4C0822267C637C0D4D03EB0620BD
:105B500086B2A6F10E0188B204F11A01A847A6F197
:105B6000140204F1220192B2A84720B1030A43EAC9
:105B7000002080B270BD4FF6FF7070BDBC5707208B
:105B80005B5A080000200C490023421C21F8103009
:105B9000D0B20928F7D9094A742101FB0320013347
:105BA000DBB20021092B4176F5D9054A05494FF4AE
:105BB000806013700880704770570720E8520720F4
:105BC0008C5107208451072010B50023092B0CD8D5
:105BD000074A591C32F81340C9B224B9054922F8C2
:105BE00013000B7010BD0B46F0E7024A137010BD96
:105BF000705707208C5107202DE9F8438E4B8F49B1
:105C00001C688F4A8F4B0328116019600AD1637E8C
:105C100003F00F01032940F03585228A002A40F065
:105C2000318572E0022874D18748C278511CCBB20A
:105C3000C37063B98278511CCBB283703BB9427890
:105C4000511CCBB2437013B90278511C01707F4BC9
:105C50007F4A002018801080607E072801D0052828
:105C60000AD1A37E591CCAB2782AA27640F00A85CE
:105C70000020607600F006BD002800F00385218A30
:105C800000293DD0A27E511EA176002A40F0FA8460
:105C9000E27E082A04D00138012809D8052A07D154
:105CA00000236C4A802163766B4811708047D3E3F0
:105CB000042A04D8032101FA02F1CBB200E0302318
:105CC00066480132E276A376C38C591CC184627E99
:105CD00002F00F00431E072B00F2D484DFE813F01C
:105CE000F40108000A00C803D204C803D204C803A0
:105CF0000025EAE1574A0421574811708047CBE359
:105D000000F00F03032B40F0BD84524B08201870A5
:105D100096E3524841884A1C4280514A937B452B66
:105D200007D00388C1885A1C4B1C0280C38000F036
:105D3000A9BC464B177C507C198800EB07278F4283
:105D400000F3A084107DBFB281061F8001D1527D77
:105D500042B14248018882894B1C511C03808181D9
:105D600000F090BC3F4B1E880EB9598869B13C4881
:105D7000C28BB24203D1018C5B88994205D037486F
:105D80000288511C018000F07DBC374CA0474FF6C3
:105D9000FF7398428046314C07D02088E389411C2C
:105DA0005A1C2180E28100F06DBC2D4DE87D062853
:105DB00033D0012807D02088218A431C4A1C238025
:105DC000228200F05FBCA28A95F82230511C082B79
:105DD000A18207D0608A218B431C4A1C63822283E4
:105DE00000F050BCA98C4FF6F6720020914285F865
:105DF000220001D9093100E00831194BA984588BE0
:105E0000184A998BD883508819845E839883134BE2
:105E1000D98A4A1CDA8200F02FBCA08B1349431C9C
:105E2000A3838847404523D0608B238C411C5A1C98
:105E30006183228400F026BCE4520720F257072039
:105E4000E0520720D452072080510720D05207206B
:105E500062590720DC52072029580800885707207C
:105E6000BC570720B8570720195B0800415B0800A2
:105E7000AA8CAB4B6E8CB5F81AC0B5F81C8090B2EA
:105E800003F5916513F85B1CA3F1740481B133F839
:105E9000709C81450CD133F86E9CB14508D133F824
:105EA000749CE14504D133F8729CC14500F028810F
:105EB0007433AB42E6D19B4B93F82F1001F03F03B4
:105EC000022B16D1984900230A80092B0BD8974939
:105ED00031F8131001338842DBB2F6D1944C002321
:105EE00023701C4662E09348914A1370438D591CFD
:105EF00041858C4B93F82F0000F00401CAB2002AB0
:105F000040F0C0838B4C8C4AA58C1421681CA08463
:105F1000282493F82D00148083F82F1093F82B2059
:105F200093F82C10502593F8294083F82E5083F8CD
:105F300029007F4D93F8280083F8281093F8271044
:105F400083F8272093F8262001342A7093F82A50EA
:105F500083F82C0083F82650E5B283F82B1083F8E1
:105F60002A2083F82D5065B90130C4B283F82C4043
:105F70003CB90131CDB283F82B5015B9013283F809
:105F80002A20684B684C588C5D8B2080998C9884B3
:105F90006A4859849A8B04884188DD831A845C831B
:105FA00099833DE3072810D00133DBB2092B16D8C3
:105FB0006348742505FB030505F11801487800289E
:105FC000F0D15B4E2C46337011E01CB18878A17E75
:105FD0008842E9D95A48742404FB0304E4E754488E
:105FE000037024B953490A8D531C0B854AE3554D60
:105FF0000321002604202C604A4DA1762176E0750D
:10600000A675E676A28095F8223095F82320688B55
:1060100043EA0221AB8B4C4AE180638011785378CC
:1060200021736373917895F82930D278A173E27364
:1060300095F8281095F82720E37295F826302080EF
:10604000012060762082A172627223723F498847E4
:1060500095F82E5005F0F000502835DD3C492A090E
:10606000531F0A789D003346AB4229DA2D48C118E8
:1060700091F8362022B3012A01D101331EE0022A11
:1060800017D191F83760042E13D13148284D027092
:1060900091F8382091F839102B70234D41EA0223F2
:1060A0002B80B3F5B77F28BF4FF4B7736382A38209
:1060B0000AE0C01890F8371011B1CB18DBB2D3E763
:1060C0001B48234903700A701025164B022083F8E1
:1060D0002F50144B042593F82F1083F8375041F0BC
:1060E0000202154D012183F82F2083F836006E221D
:1060F0002C2083F8381083F839202880602140E272
:10610000084A104E92F82F303460124803F004060B
:106110000025F6B20570FEB1202365760370E2E13A
:106120005C530720BC5707207C510720705707207D
:106130008C51072088570720D0520720B8570720D6
:10614000E8520720E452072080510720E95A08004E
:106150008D510720DC52072092F82E00143F0209CF
:106160008E489200BF1A027001F00F018C4ABFB234
:106170000229178003D103F03F0012280DD00FB978
:106180009A070AD0874A2189D08C884240F0F08152
:10619000108D6289904240F0EB8103F01003D9B278
:1061A000002941D0218A00293ED004F10C007E4D07
:1061B000A8477C4A7D4B92F82A001D78854233D14E
:1061C00092F82B10587888422ED192F82C6099784A
:1061D000B14229D192F82D20DB78934224D160730B
:1061E000E07E2573A173E373B8B9227EA37EA17DFF
:1061F000D01AA0EBD102D2B2D3B25118C9B218064C
:10620000A17501D55342DBB2E07DA0EB9002D3181B
:10621000D8B200EBD101E0752176654B207E0122DA
:1062200000211A70A0762182627E02F00F03591EAF
:106230005F4B072900F22682DFE811F008001D00FD
:1062400089005801760191019A014C011B78584A46
:10625000D90740F11782032161765149402010701F
:10626000088800232382002800F0E780422313706F
:10627000504A9047E1E01A78D3075ED5494B93F82E
:106280002F0000F03F01122957D193F82E3003F070
:10629000F002502A35DD48491D09681F0A7885003B
:1062A0000023AB4229DA3F48C11891F8362022B3C7
:1062B000012A01D101331EE0022A17D191F837607B
:1062C000042E13D1354803703B4B1A7091F83820D7
:1062D00091F83910394B41EA02201880B0F5B77FA8
:1062E00028BF4FF4B7706082A0820AE0C01890F80F
:1062F000371011B1CB18DBB2D3E728492E480B7009
:106300000270284B032293F8261093F82700627638
:1063100093F8282093F8293021726072A272E372F8
:10632000012024498847224A422010701C492448F1
:10633000002323820B80038082E01D4B2022214812
:106340001A708047204900220B685A76D1E5154B18
:1063500093F82F30D80739D502F01001C8B20028C1
:1063600034D1218A002940F08D810D4D114A2B88AE
:10637000581C80B290470E4B2D88187840F01001C1
:10638000197015B140F012021A700E4B9847002593
:106390000120082120826176E57669E08C51072092
:1063A000D0520720BC570720955A0800D852072022
:1063B000DC520720E95A08008D5107207C51072044
:1063C0006259072029580800E452072003F02003EF
:1063D000D9B271B1854B93F8340093F83510844BE2
:1063E00041EA0021186840181860824B1888411A49
:1063F0001980804B188850B102F01002D1B231B927
:106400007D4B1A7842F0020119707C4B984777480F
:1064100090F8302090F8311001EB0223A18A98B255
:10642000774A8842108000D800B9118072481388DA
:1064300002786382910700F025817249002008806C
:10644000714988476C4A13786E4A03F02000C1B244
:1064500021B100231380637614258AE003F0100035
:10646000C0B238B101250420118025826076E17622
:1064700011257EE0118869B1DA0748BF2082228A9F
:10648000604B32B9608A814288BF188019882182A6
:1064900000E01A800022E2765C4B5A4A18685449A0
:1064A0001388086033B1208A20B1524B28301880FD
:1064B00018220BE050490A7802F00203D8B20028F3
:1064C00000F0E0804B48282505801022474981F8DC
:1064D0002F2054E01878C30740F1D480464B0022A7
:1064E000102162761970484A9047CBE0414A1088E3
:1064F00008B1424988473D483F4990F82F30087815
:1065000013F001020AD0C00705D5002307206076EA
:10651000A376238216E00625657613E0C1071AD517
:10652000052161762282ADE0324B188808B1334AEA
:1065300090472E4890F82F10CA070CD50725002346
:106540006576A37601202D4A2B4D904710212E48C9
:10655000297080470CE0274B1A884AB992E01878D6
:10656000C30740F18F80072200216276A17689E07F
:1065700010251E4A1F4882F82F50282505801B4BE6
:10658000502183F82E10227A184D85F82A20607A3F
:1065900085F82B00A17A85F82C10E37A85F82D3048
:1065A000227B85F82620607B062285F82700A17BC8
:1065B00085F82810E37BEA7585F82930A088144B0C
:1065C0006884E188A9841A8858886A83A883218806
:1065D000E98363882B84647E04F01002D0B2C8B1D2
:1065E000002485F8314085F8304019E0BC57072079
:1065F000E0520720D0520720DC520720E95A080059
:106600007C5107206259072029580800D4520720DE
:10661000B857072001216E2385F8301085F83130F6
:106620001C4A1D4C10884025010AA57500252174BF
:106630001A4B607484F8355084F8345084F8325022
:1066400084F8335098471649C24362860B88452028
:106650005A1CA07390B20880010AA174114BE57313
:1066600065752575E074257665769847C2430E48B2
:106670002283C18B4B1CC3830B488288511C8180B1
:10668000002203E0034900231A460B80074B1A70CF
:10669000BDE8F883D0520720BC570720415B0800B3
:1066A0007E510720195B080088570720DC5207201D
:1066B000030A43EA002080B2704700000A1E08B5B2
:1066C000034609DD0548064900680A80834203D075
:1066D000194692B2034B984708BD00BFD452072019
:1066E00062590720E97B080030B52E4A948BD58B80
:1066F0000022072A16D80C2151432B484318405A30
:1067000068B1598859B1844209D18D4207D12748CF
:106710000270274A11689088596018813EE0013262
:10672000D2B2E6E70022072A0DD80C2151431E48B9
:106730004318405A20B9598811B91C48027023E007
:106740000132D2B2EFE71949082A0A701CD1194B5D
:1067500000221C78104611460729134B0BD80C2534
:1067600005FB01339B7AE31A9342C4BFDAB20846B1
:106770000131C9B2F0E710490A70104A0B49107094
:106780000C2202FB003308700D491A4608680849BC
:1067900042F8040B0868898858609180054A11788E
:1067A000997230BDBC570720905107208E510720A9
:1067B000D2570720F15107208F510720F0510720B1
:1067C000D8570720094B002230B51A70074A1378B2
:1067D000072B09D80C205843054C002125180133FC
:1067E000215213706980F1E730BD00BF8E51072040
:1067F0009051072038B5114B11491D780022681CB3
:10680000C5B21D700A700E4C2478072C15D80C23C5
:1068100063430C4AD0184188D25A41EA020399B224
:1068200039B1827AAB1A772B03DD00210422064BA3
:106830009847601C024C2070E5E738BDF1510720F5
:106840008E51072090510720FB7B0800F8B5264D9C
:106850002B88292B4FF0000338D9244C1F46A08ADF
:106860002B80B0F5807F03D0B0F5007F3BD12FE0C7
:106870001F4EE28C3088824235D1218D7388994237
:1068800031D11C4A9047022027756075234653F882
:10689000161F9A8821621849A28408688A88C4F859
:1068A0001600A18C9A80236AC4F806006281A08B2E
:1068B000E28B2360A18033887188E08422850820E0
:1068C0000622A383E183207362732A232B80F8BD01
:1068D000074BE18C1A88914205D1208D5B88984244
:1068E00001D104498847F8BDD0520720BC57072082
:1068F000B8570720E966080086510720F8B5434AD3
:106900004FF6FF70D38B834205D1108C984202D191
:106910003F4B196867E03F4C3F4A258810885D402F
:10692000054207D1394D6488288C528880EA0405D5
:10693000154206D0394D3A4B28886A8818805A800B
:1069400002E0374C23806080354C00252088648825
:10695000072D0CD80C236B43324AD118D25A8242ED
:1069600002D14B88A34238D00135EDB2F0E72E4B6F
:10697000082D1D7033D1254C06262046FF21062206
:106980002A4FB84704F1200000213246B847284971
:10699000234B08688A88C4F806001988C4F81600D2
:1069A00058881C4B62816283E1841A88598820854B
:1069B00001230020A283E18304221E492075637510
:1069C000A073E3736074257425736673A674E27410
:1069D00036340C602A20184B16E0134805700B461D
:1069E0000A4A53F8041F11609888084B9080104A97
:1069F00011689088C3F806100822002158811A7384
:106A000059730D4B18880E301880F8BDBC570720FD
:106A10008BBA0800B8570720B457072084570720BF
:106A2000F2510720905107208E510720FB7B080070
:106A300086510720E0520720D052072070B50C4B3A
:106A40000C4C18780C4D68B90C4E0D48B0475620C8
:106A5000A0475520A8470A48B0475620A0475520D0
:106A6000A047ECE75620A8475520A04770BD00BFBF
:106A7000F6510720616E0800916E080001000720A2
:106A800060E31600014B012018707047F651072093
:106A9000014B00221A707047F6510720012870B58B
:106AA0000D4616460AD1064B187838B10024B44278
:106AB00004DA285D034988470134F8E7002070BDF7
:106AC000F6510720651408000020704770B52D4B63
:106AD00098472D4880472D490A780AB92C4CA04781
:106AE00056202C4EB0472C4C55202C4DA047A84783
:106AF00005465620A0475520A0472948294B9847CE
:106B0000E8B20D28284D02D02848A847E8E75620CB
:106B1000B0475520A0472648A8471C490A780AB91B
:106B20001B4EB0472348204CA0470026224B234849
:106B30009D19995DAA680C361B4DA847902EF5D17A
:106B40001F48A84715488047C4B221461D48A8479A
:106B500000220C255543184EA95DA14209D11A48BF
:106B6000114CA0477019466806B1B0471648A047B7
:106B7000D3E701320C2AECD121460B4B134898473E
:106B8000CBE700BF516C0800B1150800F651072093
:106B90003D6A0800916E0800616E080071130800DC
:106BA00060E3160001000720A97B080091BA0800E5
:106BB00025BB0800A8BA0800D4000720B5BA080011
:106BC000C0BA0800D5BA0800DABA080002BB08004B
:106BD00008B5044B9847002003498847034880477D
:106BE00008BD00BF2D720800857208009972080068
:106BF00008B50D480D4B984700203E210C4A9047A0
:106C00000C4880470028FBD00B4988470B4A0C4BA7
:106C10009A620C4880470028FBD000200A49884728
:106C20000A4A904708BD00BF00BD01052574080051
:106C3000B1710800FD7108000D720800013F0620C7
:106C400000060E401D7208006971080051730800AB
:106C50007C4B4FF400422DE9F0410B205A607A4DF5
:106C6000A8470C20A8470D20A8470E20A847774822
:106C7000804777494FF0010881F80080BFF35F8FAC
:106C800062B6744C55204FF06051A04756204FF02B
:106C90004051A04745204FF04051A04746204FF0BB
:106CA00040516D4EA04747204FF04051A04748202B
:106CB0004FF04051A04731465D20A0473146532058
:106CC000A04731465220A04731465120A0473146C7
:106CD0005020A04731464F20A0472520A847172025
:106CE000A8472C204FF00061A0474FF000612D20F5
:106CF000A0471120A8470A204FF00061A0470B20B1
:106D00004FF00061A0473A204FF00061A0473920C2
:106D10004FF00061A04709204FF04051A047692083
:106D20004FF04051A04768204FF02051A0474FF04E
:106D300020516720A0471220A8470C204FF0006187
:106D4000A0470D204FF00061A0470F204FF00061D9
:106D5000A0470E204FF00061A04711204FF0405196
:106D6000A0474FF040516120A0471320A84735208D
:106D70004FF00061A04734204FF00061374FA0472B
:106D800037204FF00061A04736204FF00061A04748
:106D900039462B20A0472B20A84740464FF00061E2
:106DA000A0474FF000610020A0472A20A8472020DC
:106DB0004FF00061A04722204FF00061A047232040
:106DC0004FF00061A04721204FF00061A047242030
:106DD0004FF00061A04725204FF00061A04726201A
:106DE0004FF00061A04727204FF00061A047282006
:106DF0004FF00061A04729204FF00061A0473146C5
:106E00000520A0474FF060514420A0471520A84717
:106E10002720A84739461420A04713204FF00061CF
:106E2000A04739461520A04739461620A0473946C5
:106E30001720A04739461820A04712203146A04706
:106E4000BDE8F081501A0E4041720800F16B080055
:106E500064010720097008000100002801000008F3
:106E6000552808B503D0012356280AD100E0002395
:106E7000044A02EBC3014B68012B0CBF024B034BCE
:106E8000984708BD24BC0800ED6F0800D36F0800C8
:106E9000552808B503D0012356280AD100E0002365
:106EA000044A02EBC3014B68012B0CBF024B034B9E
:106EB000984708BD24BC0800D36F0800ED6F080098
:106EC00010B50023084ADC0052F83310884207D17D
:106ED0001219516801290CBF04490549884710BDA2
:106EE0000133042BEED110BD34BC0800ED6F080057
:106EF000D36F080010B50023084ADC0052F83310A5
:106F0000884207D11219516801290CBF044905496B
:106F1000884710BD0133042BEED110BD34BC0800EE
:106F2000D36F0800ED6F0800B1F1805F426414D0A8
:106F300009D8B1B1B1F1006F12D1036F016F0B40ED
:106F400023EA02030BE0B1F1405F0AD0B1F1605FC8
:106F500007D0B1F1205F03D17047036F134303677C
:106F600042607047D30741644CBF4166016612F02E
:106F70000A0F14BF01624162930701D4130701D5C0
:106F8000C0F8801041610160704710B5029C4164F7
:106F90000CB1416600E001660BB1016500E041659E
:106FA0000AB1016300E041630161016010BDC06C82
:106FB0007047806C7047430903F5001101F20772B6
:106FC0005302D96B00F01F0021FA00F202F0010019
:106FD0007047430903F5001101F2077200F01F002A
:106FE0000121530201FA00F21A637047430903F5C5
:106FF000001101F2077200F01F000121530201FA93
:1070000000F25A6370470000F7B544090D4604F5D5
:10701000001101F2077205F0F0415402B1F1205F56
:107020002CD015D8B1F1006F19D0B1F1805F44D1E7
:1070300000F01F03012000FA03F16164226F41EAAE
:107040000203EA07236761604CBF6166216635E091
:10705000B1F1405F1CD0B1F1605F2ED118E000F0BB
:107060001F00012606FA00F7154B20463A469847BE
:10707000E9074CBF6766276630461FE000F01F0136
:107080000126204606FA01F12A460E4B9847F3E7FF
:10709000012605F0605200F01F0105EA060000908D
:1070A0002046B2F16054634253EB040206FA01F148
:1070B000C5F38003044CA047DEE70020FEBD00BFFF
:1070C000296F0800656F08008B6F080070B50F4BC3
:1070D00004460E4698470E49054620468847054017
:1070E00012D00C4C54F80C0CB0420AD154F8081CC5
:1070F000294206D022683046904754F8083C25EAD9
:1071000003051034002DEDD170BD00BFAF6F080036
:10711000B36F08000452072008B502480B21024B48
:10712000984708BD000E0E40CD70080008B5024813
:107130000C21024B984708BD00100E40CD7008008E
:1071400008B502480D21024B984708BD00120E40B9
:10715000CD70080008B502480E21024B984708BDC3
:1071600000140E40CD700800104B1A6B22F0700115
:107170000843186340F601020C48836E190703D4D4
:10718000013AF9D101207047026B22F0030141F06E
:107190000203036340F601010448826E100702D423
:1071A0000139F9D1EEE70020704700BF00060E401C
:1071B0000F4B1A6A28B10F490F48114041EA0002EB
:1071C00014E022F45C1020F0030242F45C1040F062
:1071D0000102090642EA11401862054B9A6ED10776
:1071E000FBD5196A41F09B7040F480321A627047F7
:1071F00000060E40FCFFC8FE02003701024B986EED
:1072000000F48030704700BF00060E40024B4FF084
:1072100000529A62704700BF00060E40024B986E03
:1072200000F00200704700BF00060E40034B4FF411
:107230004412DA61986E4206FCD5704700060E4093
:107240002C2819D81F280E4B4FF0010208D802FA3B
:1072500000F0996900EA010282420FD018610DE046
:10726000203802FA00F0D3F8081100EA0102824245
:1072700004D0C3F8000101E00120704700207047EE
:1072800000060E40000200F47062024B42F0010161
:107290009963704700060E40014B20221A60704728
:1072A00000060E40044B20F07F401A6F20F4780156
:1072B0000A431A67704700BF00060E40024B187859
:1072C00080F00100704700BF68520720FEE7000011
:1072D00008B5164A164B9A4201D116480AE0002317
:1072E000134A154998188842F7D2104819589950EE
:1072F0000433F5E7114A904203D2002140F8041B01
:10730000F8E70F4820F0604323F07F0100F160426E
:107310000C4BB2F5801F996003D2986840F0005181
:107320009960094B9847094A9047FEE710BD08004D
:1073300000000720300A0720300A0720685907207C
:107340000000080000ED00E05D7B0800CD6A080049
:107350002D4A136B03F0030001282C4B0DD003D3EF
:10736000116AC9011AD525E02948426910064CBFA7
:107370004FF400424FF4FA4231E0116AC9010BD4D4
:1073800024481860126A02F07001102902D02029E6
:1073900026D101E0204A22E0204A20E01D48186062
:1073A000126A02F07001102902D0202904D101E0F4
:1073B000194800E019481860134A136B03F00301E1
:1073C0000229124B0AD1906A916AC0F30A42501CFA
:1073D0001A68C9B24243B2FBF1F200E0104A1A60E7
:1073E0000948036B03F07002702A084B04D1186837
:1073F0000321B0FBF1F205E0016B1A68C1F3021042
:1074000022FA00F21A60704700060E406801072059
:10741000101A0E4000093D0000127A00001BB70050
:10742000001C4E0E114B124A9842124B01D80021FB
:1074300018E01149884202D84FF4807112E00F49D8
:10744000884202D84FF400710CE00D49884202D8FE
:107450004FF4407106E00B49884294BF4FF48061BD
:107460004FF4A06111601960704700BFBFEA2101AD
:10747000000A0E40000C0E407FF0FA02FF8FD0038E
:10748000FFB3C4047F4A5D05044B1A680AB9044976
:1074900019601A6810181860104670476C5207205F
:1074A000687907204FF0FF3070474FF400534B606E
:1074B0000020704701207047002070474BB942B947
:1074C000002908BF002802D04FF0FF31084600F025
:1074D0003BB882B0EC462DE9005000F01DF8DDF815
:1074E00004E002B00CBC70472DE9F0411646984606
:1074F00004460D4600F02AF806FB01FCA6FB00231B
:1075000000FB08C7FB18A21A65EB0303069CC4E93D
:107510000023BDE8F08100BF2DE9F041904606460A
:107520000F461D4600F070F900FB05F3A0FB08456F
:1075300008FB0138069B4544341B67EB0505C3E98E
:107540000045BDE8F08100BF704700BF00292DE96C
:10755000F00F1D46C0F29D800024002DC0F29480E3
:1075600080460F4694461E46E3BB8A4255D9B2FA7E
:1075700082F747B1C7F1200520FA05F601FA07F1B5
:10758000BA40B8403143170CB1FBF7F61FFA82FC42
:1075900007FB16110CFB06F5030C43EA01439D4261
:1075A00008D9711E9B1880F013819D4240F2108112
:1075B000023E9B18591BB1FBF7F507FB15130CFB9B
:1075C00005FC80B240EA03418C4507D96B1E8A183E
:1075D00080F00081944540F2FD80023D45EA06417D
:1075E000002503E08B420CD9002529460A462B468C
:1075F00014B1524263EB430310461946BDE8F00F45
:107600007047B3FA83F5002D40F087808B4201D399
:107610008242EAD800250121E8E712B90126B6FB2B
:10762000F2F2B2FA82F6002E39D18E1A130C1FFA3A
:1076300082FC0125B6FBF3F703FB17610CFB07F88F
:107640004FEA104949EA0146B04506D9791EB618F5
:1076500002D2B04500F2D3800F46C8EB0606B6FB57
:10766000F3F103FB11630CFB01FC80B240EA03431E
:107670009C4506D94E1E9A1802D2944500F2C2804B
:10768000314641EA0741B1E7E443524263EB430329
:1076900066E7404261EB41014FF0FF345DE7B240E5
:1076A000C6F1200921FA09F720FA09F901FA06F1D1
:1076B000130CB7FBF3F81FFA82FC03FB18770CFBE3
:1076C00008F549EA01094FEA194141EA0747B04084
:1076D000BD420AD9BF1808F1FF3680F08E80BD4246
:1076E00040F28B80A8F10208BF18791BB1FBF3F5BB
:1076F00003FB15170CFB05F61FFA89F949EA074148
:107700008E4206D96F1E891871D28E426FD9023D02
:1077100089188E1B45EA08458CE7C5F1200122FA3D
:1077200001F306FA05F627FA01F207FA05F720FA3F
:1077300001F11E434FEA1649B2FBF9F81FFA86FA27
:1077400009FB18220AFB08FB0F433B0C43EA0242E9
:1077500093450CFA05FC08D9921908F1FF314AD279
:10776000934548D9A8F102089219CBEB0203B3FB69
:10777000F9F109FB11320AFB01FABFB247EA0243F1
:107780009A4506D94A1E9B1933D29A4531D90239F6
:107790009B1941EA08410F0C1FFA8CF808FB07F609
:1077A0008AB24FEA1C4C08FB02F80CFB02620CFB8D
:1077B00007FC02EB1842964288BF0CF5803CCAEBEE
:1077C00003030CEB124C63450ED305D000250DE7E7
:1077D0000E46EFE61D4601E700FA05F01FFA88F8AD
:1077E00008EB0245A842F1D201390025FEE63D46EC
:1077F0008FE71146CDE78846B7E7B04675E7023F09
:10780000B6182AE702393CE72DE9F0071446054689
:107810000E46002B3DD18A4249D9B2FA82F747B1D0
:10782000C7F1200120FA01F206FA07F6BC40BD407C
:107830001643220CB6FBF2F0A1B202FB106601FB6C
:1078400000F32F0C47EA0646B34208D9471E361903
:1078500080F0FA80B34240F2F78002383619F61A07
:10786000B6FBF2F302FB136201FB03F1ADB245EA92
:107870000242914207D95E1E121980F0E7809142C0
:1078800040F2E480023B43EA00400021BDE8F007FB
:1078900070478B4243D8B3FA83F4002C42D18B4219
:1078A00002D3824200F2E18000210120EEE712B90A
:1078B0000127B7FBF2F4B4FA84F2002A40F0898081
:1078C0000A1B230CA7B20121B2FBF3F603FB16221D
:1078D00007FB06F04FEA154C4CEA0242904207D9EA
:1078E000121906F1FF3C02D2904200F2D0806646A7
:1078F000121AB2FBF3F003FB102307FB00F7ADB243
:1079000045EA03439F4207D9421E1B1980F0A0801D
:107910009F4240F29D80023840EA0640B6E70021CF
:107920000846B3E7C4F1200622FA06F703FA04F387
:1079300021FA06F501FA04F120FA06F63B434FEA74
:10794000134CB5FBFCF71FFA83F80CFB175508FB2B
:1079500007F946EA010A4FEA1A4141EA0545A945F5
:1079600002FA04F204D97E1EED18C0F08180374679
:10797000C9EB0501B1FBFCF60CFB161508FB06F87C
:107980001FFA8AFA4AEA0541884503D9751EC918C3
:1079900074D32E4646EA0746370C1FFA82FC0CFBCE
:1079A00007F5120CB3B20CFB03FC02FB035302FB02
:1079B00007F203EB1C439D4288BF02F58032C8EBFF
:1079C000010102EB134291424CD343D030460021D7
:1079D0005CE79440C2F1200521FA05F620FA05F58E
:1079E00001FA02F1230CB6FBF3FCA7B203FB1C6601
:1079F00007FB0CF829430D0C45EA0646B04500FA92
:107A000002F508D936190CF1FF303ED2B0453CD909
:107A1000ACF1020C3619C8EB0602B2FBF3F003FB23
:107A2000102607FB00F889B241EA0642904506D9C4
:107A3000461E121927D2904525D902381219C8EBD3
:107A4000020240EA0C413FE7384608E733461AE7AE
:107A5000104661E700FA04F01FFA8CFC0CEB0343BC
:107A60009842B3D2701E002110E7214620460DE750
:107A7000A9457FF67CAF023FED1879E7884588D9A4
:107A8000023EC91886E73046D9E78446C3E7023E7E
:107A900012192DE72DE9F8439846234B06461C683A
:107AA0000F46D4F84801914618B904F5A670C4F8F9
:107AB000480141681F2916DD1C4818B94FF0FF30F6
:107AC000BDE8F8834FF4C870AFF300800028F5D00C
:107AD000D4F84821002545600260C4F84801C0F888
:107AE0008851C0F88C51B6B14468012202FA04F200
:107AF000D0F8881100EB84031143022EC3F888905C
:107B0000C0F888111C46C3F8088104D1D0F88C3124
:107B10001A43C0F88C2141688B1C4A1C40F8237022
:107B200042600020BDE8F88354BC0800000000005B
:107B300070B5084B084C0025E01A841003EB84064E
:107B4000043D1CB172599047013CF9E7BDE8704013
:107B500004F0D2B804BD080008BD080038B50E4DC9
:107B60000E4B0024E81A8510AC4205D00B4951F8A1
:107B7000242090470134F7E704F0B4F80849094A93
:107B8000541AA5100024AC4205D0054B53F824002C
:107B900080470134F7E738BDF0BC0800F0BC0800AE
:107BA000F0BC0800F8BC08000FB407B5064904ABE8
:107BB000086853F8042B8168019300F0DDFCBDE8F0
:107BC0000E4004B0704700BF700107200EB403B52B
:107BD00003AB53F8042B8168019300F0CDFCBDE8A2
:107BE0000C4003B0704700BF10B50023934203D090
:107BF000CC5CC4540133F9E710BD821803469342AC
:107C000002D003F8011BFAE7704700000CB410B56E
:107C10009CB01EAB029106916FF0004153F8042B0B
:107C2000049107914FF6FF71ADF816104FF40274EE
:107C300002A90193ADF8144000F06EF8029B0022F7
:107C40001A701CB0BDE8104002B070470EB400B509
:107C50009CB0029006906FF000401DAB049007901E
:107C60004FF402710A4853F8042BADF814104FF684
:107C7000FF71ADF81610006802A9019300F04CF8EE
:107C8000029B00221A701CB05DF804EB03B0704731
:107C900070010720C9B2034610F8012B12B18A42C5
:107CA000F9D102E0002918BF0023184670470346A7
:107CB00013F8012B002AFBD1181A0138704730B590
:107CC000013903461C463AB111F8015F013A03F845
:107CD000015B1C46002DF5D199188C4203D000227F
:107CE00004F8012BF9E730BD30B503780BB102463B
:107CF00003E0097871B1002030BD104603780132ED
:107D0000002BF8D00023CC5C24B1C55CA542F4D193
:107D10000133F8E730BD00002DE9F04F1E468B8996
:107D2000894603F0800114460AB2A9B083469AB18D
:107D3000D9F8103083B9402101F014FEC9F80000D1
:107D4000C9F8100028B90C22CBF800204FF0FF3002
:107D5000DAE34020C9F81400002118AD0B950D910D
:107D60000C91019405910491A846019B1C4613F8BF
:107D7000012B1AB90198251A03D11DE0252AF5D146
:107D8000F8E7019A0D9988E824000C9A4B19501CC9
:107D900007280D930C9002DC08F1080809E058460A
:107DA00049460BAA02F0DAF9002840F0A2830DF14F
:107DB000600804994B1904932278002A00F09283FA
:107DC0000022013401948DF827204FF0FF3C0392EC
:107DD0001746019810F8013B0190632B00F0B38027
:107DE00033DC392B1ADC312B80F291802B2B01D123
:107DF0001A46EEE70ADC232B55D02A2B56D0202B2F
:107E000040F0F581002A08BF2022E2E72E2B58D04F
:107E1000302B79D02D2B40F0EA814FE04F2B00F032
:107E2000DE8007DC442B40F0E2818DF8272047F00C
:107E3000100790E0552B00F01F81582B40F0D781A0
:107E4000AE4D8DF82720059530E16F2B00F0C980ED
:107E500010DC692B24D007DC642B21D0682B40F088
:107E6000C68147F04007B4E76C2B5FD06E2B40F023
:107E7000BE8196E0732B00F0DF8006DC702B00F0F3
:107E8000CD80712B40F0B3815AE0752B00F0F68065
:107E9000782B40F0AC819A4D8DF82720059505E1AF
:107EA0008DF8272057E047F0010792E7331D366829
:107EB000002E039615DA704203901E4647F0040721
:107EC00087E7019911F8013B2A2B01910BD1D6F8D4
:107ED00000C0331DBCF1000F03DA1E464FF0FF3C1B
:107EE00077E71E4675E74FF0000CA3F13000092834
:107EF00007D801990A2303FB0C0C11F8013B0191EF
:107F0000F3E74CEAEC7C68E747F0800761E701980B
:107F10000021303B0A2404FB013110F8013BA3F19E
:107F20003004092C0190F4D9039156E701990B789C
:107F30006C2B02D1481C019002E047F0100748E783
:107F400047F0200745E7326800258DF838208DF886
:107F50002750043655E1BA0607D5073626F007053F
:107F600005F10806D5E900450FE017F0100F06F1FE
:107F7000040101D0326805E017F0400F326801D0EB
:107F800014B200E01446E5170E46002C75F100020D
:107F900080F2B8802D23644265EB45058DF82730CB
:107FA000B0E017F0200F8DF8272006F1040205D06D
:107FB000049C3568E0172C60686004E0FB0604D57B
:107FC0003368049919601646CFE63068049C17F0B0
:107FD000400F06F1040614BF04800460C5E647F0B4
:107FE000100717F0200008D0F31D23F0070505F156
:107FF0000806D5E9004500207CE017F0100106F1E5
:10800000040206D117F0400003D03488002516463C
:10801000F1E736680025344616466BE0384B3021D0
:1080200078223468002547F002078DF828108DF873
:108030002920043605935CE031460025D1F800A0E4
:108040000436AC458DF82750504611DB6246294670
:10805000CDF800C001F088FEDDF800C0002800F077
:10806000D480CAEB0004644540F3D1806446CEE07E
:10807000FFF71DFE0446CAE047F01007BD0606D50F
:10808000F01D20F0070404F1080630CC0CE017F0D6
:10809000100F06F1040303D17C0601D5348801E0FA
:1080A00035682C4600251E46012023E0B80607D57A
:1080B000F41D24F0070101F10806D1E900450CE0A8
:1080C00017F0100F06F1040003D1790601D53488AA
:1080D00001E03668344600250646FA0709D554EA19
:1080E000050206D030228DF828208DF8293047F07F
:1080F0000207022000218DF8271004E07ABC080056
:108100008BBC08000120BCF1000FA8BF27F080073E
:1081100054EA050102D1BCF1000F58D001281DD04E
:1081200002280DF15F0341D004F00702E40844EA9D
:108130004570E90804460D46303254EA05019A4676
:108140001A7003F1FF33EFD1F80755464AD5302AAC
:1081500048D030229A4605F8012C43E0002D08BF94
:108160000A2C03D230348DF85F4036E00DF15F0306
:108170000293204629460A220023CDF800C0FFF7CB
:108180009DF90298303200F8012929460A2200237D
:10819000DDF808A002902046FFF790F904460D464E
:1081A00054EA0501DDF800C0E3D11BE0059904F0B5
:1081B0000F0024090A5C44EA0570290904460D46AB
:1081C0009A4603F8012954EA0502EFD10AE038B9CA
:1081D000F90705D530208DF85F000DF15F0A01E049
:1081E0000DF1600A18ADCAEB050465460FE08DF885
:1081F0002720002B00F0768100258DF838308DF88F
:10820000275001240DF1380A01E0644605469DF827
:108210002730AC42ACBF21462946029113B10298E7
:10822000421C029217F00201069102D0029B981C98
:10823000029017F0840207923CD10399029BCB1A5B
:10824000002B37DDA548102BC8F800001BDD0C9A69
:1082500010210D98C8F80410511C103007290D90FA
:108260000C9102DC08F108080BE0584649460BAABD
:10827000009301F073FF009B002840F03A810DF15C
:108280006008103BDEE70D9AC8F80430D1180C9B4B
:108290000D91581C07280C9002DC08F1080809E031
:1082A000584649460BAA01F059FF002840F02181A9
:1082B0000DF160089DF82720DAB10DF12701C8F80B
:1082C00000100C9901230D98C8F804304B1C421C77
:1082D000072B0D920C9302DC08F1080809E05846C0
:1082E00049460BAA01F03AFF002840F002810DF147
:1082F00060080698D0B10AAAC8F800200C9A02219A
:108300000D9BC8F80410511C981C07290D900C9166
:1083100002DC08F1080809E0584649460BAA01F0BA
:108320001DFF002840F0E5800DF16008079B802BC1
:108330003CD10398029A831A002B37DD6849102B31
:10834000C8F800101BDD0C9810220D99C8F8042005
:10835000421C1031072A0D910C9202DC08F108082A
:108360000BE0584649460BAA009301F0F7FE009B2C
:10837000002840F0BE800DF16008103BDEE70C9A4B
:108380000D98511CC8F80430072903440D930C9133
:1083900002DC08F1080809E0584649460BAA01F03A
:1083A000DDFE002840F0A5800DF160082D1B002D9A
:1083B00034DD4B48102DC8F8000019DD0C980D99DC
:1083C000431C10221031072BC8F804200D910C9388
:1083D00002DC08F1080809E0584649460BAA01F0FA
:1083E000BDFE002840F085800DF16008103DE0E7FB
:1083F0000C9A0D9B511CC8F8045007291D440D957B
:108400000C9102DC08F1080808E0584649460BAA1E
:1084100001F0A4FE00286CD10DF160080C9B0D98B2
:108420005A1CC8F80440072A0444C8F800A00D9458
:108430000C9202DC08F1080307E0584649460BAAF3
:1084400001F08CFE002854D118AB7A070BD40498A5
:10845000029B039A0D999342ACBFC01880180490F8
:10846000002936D02FE0039C0299641A002CEEDD1F
:108470001A48102C186015DD0C9910200D9A5860C0
:10848000481C103207280D920C9001DC083307E0DD
:10849000584649460BAA01F061FE002829D118ABC5
:1084A000103CE5E70C9A5C600D9B511C1C190729D8
:1084B0000D940C91CBDD584649460BAA01F04EFEB7
:1084C0000028C4D015E0584649460BAA01F046FEE4
:1084D00078B900250C950DF1600846E45ABC0800F7
:1084E0006ABC08000D9820B1584649460BAA01F015
:1084F00035FEB9F80C20049B02F0400108B20028B8
:1085000018BF4FF0FF33184629B0BDE8F08F00BF09
:1085100093682DE9F04781460F4614461BB9536016
:108520001846BDE8F0874B6E9B041ED51568A06801
:108530000835C8B155F8041C55F808AC4FEA910845
:108540000026464509DA48465AF826103A4600F011
:1085500043FE431C0BD00136F3E7A2684FEA8808BC
:10856000C8EB0203A360E2E701E000F0ADFF0021E9
:10857000A1606160BDE8F0872DE9F04F8946A9B0A0
:1085800014461D461E46824618B1836B0BB900F097
:10859000A7FDB9F80C0000F4005211B249B940F43B
:1085A0000053D9F86400A9F80C3020F40052C9F83F
:1085B0006420B9F80C1001F0080318B248B1D9F8DA
:1085C000102032B1B9F80C1001F01A030A2B16D1A1
:1085D00009E05046494600F025FC0028F2D04FF053
:1085E000FF320392D3E3B9F90E00002807DB5046AF
:1085F000494622462B4600F0CEFB0390C7E30022FB
:1086000018AD0B950D920C92019405920392A84619
:1086100001990C4611F8013B0BB1252BF9D1019AB8
:10862000A51A19D00C990D984B1C88E82400072B2B
:1086300000EB05020D9208F108080C9309DD504685
:1086400049460BAAFFF764FF002840F098830DF11C
:1086500060080398421903922178002900F088836A
:108660000022013401948DF827204FF0FF3C049242
:108670001746019810F8013B0190632B00F0B3807E
:1086800033DC392B1ADC312B80F291802B2B01D17A
:108690001A46EEE70ADC232B55D02A2B56D0202B86
:1086A00040F0F581002A08BF2022E2E72E2B58D0A7
:1086B000302B79D02D2B40F0EA814FE04F2B00F08A
:1086C000DE8007DC442B40F0E2818DF8272047F064
:1086D000100790E0552B00F01F81582B40F0D781F8
:1086E000AE4D8DF82720059530E16F2B00F0C98045
:1086F00010DC692B24D007DC642B21D0682B40F0E0
:10870000C68147F04007B4E76C2B5FD06E2B40F07A
:10871000BE8196E0732B00F0DF8006DC702B00F04A
:10872000CD80712B40F0B3815AE0752B00F0F680BC
:10873000782B40F0AC819A4D8DF82720059505E106
:108740008DF8272057E047F0010792E7331D366880
:10875000002E049615DA704204901E4647F0040776
:1087600087E7019911F8013B2A2B01910BD1D6F82B
:1087700000C0331DBCF1000F03DA1E464FF0FF3C72
:1087800077E71E4675E74FF0000CA3F1300009288B
:1087900007D801990A2303FB0C0C11F8013B019146
:1087A000F3E74CEAEC7C68E747F0800761E7019863
:1087B0000021303B0A2404FB013110F8013BA3F1F6
:1087C0003004092C0190F4D9049156E701990B78F3
:1087D0006C2B02D1481C019002E047F0100748E7DB
:1087E00047F0200745E7326800258DF838208DF8DE
:1087F0002750043655E1BA0607D5073626F0070597
:1088000005F10806D5E900450FE017F0100F06F155
:10881000040101D0326805E017F0400F326801D042
:1088200014B200E01446E5170E46002C75F1000264
:1088300080F2B8802D23644265EB45058DF8273022
:10884000B0E017F0200F8DF8272006F1040205D0C4
:10885000039C3568E0172C60686004E0FB0604D5D3
:108860003368039919601646D2E63068039C17F006
:10887000400F06F1040614BF04800460C8E647F008
:10888000100717F0200008D0F31D23F0070505F1AD
:108890000806D5E9004500207CE017F0100106F13C
:1088A000040206D117F0400003D034880025164694
:1088B000F1E736680025344616466BE0384B302128
:1088C00078223468002547F002078DF828108DF8CB
:1088D0002920043605935CE031460025D1F800B02C
:1088E0000436AC458DF82750584611DB62462946C0
:1088F000CDF800C001F038FADDF800C0002800F023
:10890000D480CBEB0004644540F3D1806446CEE0D4
:10891000FFF7CDF90446CAE047F01007BD0606D5BB
:10892000F01D20F0070404F1080630CC0CE017F02D
:10893000100F06F1040303D17C0601D5348801E051
:1089400035682C4600251E46012023E0B80607D5D1
:10895000F41D24F0070101F10806D1E900450CE0FF
:1089600017F0100F06F1040003D1790601D5348801
:1089700001E03668344600250646FA0709D554EA70
:10898000050206D030228DF828208DF8293047F0D6
:108990000207022000218DF8271004E07ABC0800AD
:1089A0008BBC08000120BCF1000FA8BF27F0800796
:1089B00054EA050102D1BCF1000F58D001281DD0A6
:1089C00002280DF15F0341D004F00702E40844EAF5
:1089D0004570E90804460D46303254EA05019B46CD
:1089E0001A7003F1FF33EFD1F8075D464AD5302AFC
:1089F00048D030229B4605F8012C43E0002D08BFEB
:108A00000A2C03D230348DF85F4036E00DF15F035D
:108A10000293204629460A220023CDF800C0FEF723
:108A20004DFD0298303200F8012929460A22002320
:108A3000DDF808B002902046FEF740FD04460D46E2
:108A400054EA0501DDF800C0E3D11BE0059904F00C
:108A50000F0024090A5C44EA0570290904460D4602
:108A60009B4603F8012954EA0502EFD10AE038B920
:108A7000F90705D530208DF85F000DF15F0B01E09F
:108A80000DF1600B18ADCBEB050465460FE08DF8DA
:108A90002720002B00F06C8100258DF838308DF8F0
:108AA000275001240DF1380B01E0644605469DF87E
:108AB0002730AC42ACBF21462946029113B102983F
:108AC000421C029217F00201069102D0029B981CF0
:108AD000029017F0840207923AD10499029BCB1AB4
:108AE000002B35DDA048102BC8F800001ADD0C99CA
:108AF00010200D9AC8F80400481C103207280D9267
:108B000008F108080C900BDD504649460BAA00936B
:108B1000FFF7FEFC009B002840F031810DF160085A
:108B2000103BDFE70D9AC8F80430D1180C9B0D916B
:108B3000581C072808F108080C9009DD50464946E2
:108B40000BAAFFF7E5FC002840F019810DF1600841
:108B50009DF82720D2B10DF12701C8F800100C991B
:108B600001230D98C8F804304B1C421C072B0D92B2
:108B700008F108080C9309DD504649460BAAFFF797
:108B8000C7FC002840F0FB800DF160080698C8B1D2
:108B90000AAAC8F800200C9A02210D9BC8F80410FC
:108BA000511C981C07290D9008F108080C9109DD4B
:108BB000504649460BAAFFF7ABFC002840F0DF8087
:108BC0000DF16008079B802B3AD10498029A831A12
:108BD000002B35DD6549102BC8F800101ADD0C9A02
:108BE00010210D98C8F80410511C103007290D9061
:108BF00008F108080C910BDD504649460BAA00937A
:108C0000FFF786FC009B002840F0B9800DF160085A
:108C1000103BDFE70C9A0D98511CC8F80430072967
:108C200003440D9308F108080C9109DD50464946AC
:108C30000BAAFFF76DFC002840F0A1800DF1600841
:108C40002D1B002D32DD4948102DC8F8000018DD1D
:108C50000C9A0D98531C10211030072BC8F80410E3
:108C60000D9008F108080C9309DD504649460BAAFF
:108C7000FFF74EFC002840F082800DF16008103DA7
:108C8000E1E70C9A0D9B511CC8F8045007291D44BC
:108C90000D9508F108080C9108DD504649460BAACD
:108CA000FFF736FC00286AD10DF160080C9A0D9888
:108CB000511CC8F8044007290444C8F800B00D94BA
:108CC00008F108030C9107DD504649460BAAFFF74F
:108CD0001FFC002853D118AB7A070BD4039B029AD0
:108CE00004990D988A42ACBF9B185B180393002827
:108CF00035D02EE0049C0298241A002CEEDD1A4A8E
:108D0000102C1A6014DD0C9810220D995A60421C28
:108D100010310833072A0D910C9207DD5046494661
:108D20000BAAFFF7F5FB002829D118AB103CE6E7AA
:108D30000C995C600D9B481C1C1907280D940C9025
:108D4000CCDD504649460BAAFFF7E2FB0028C5D010
:108D500015E0504649460BAAFFF7DAFB78B9002523
:108D60000C950DF1600853E49CBC0800ACBC0800F5
:108D70000D9A22B1504649460BAAFFF7C9FBB9F834
:108D80000C1001F0400003B2002B7FF428AC0398D4
:108D900029B0BDE8F08F70B50C468989ADF58D6DB1
:108DA00021F00205616EADF80C501991E589E16979
:108DB000ADF80E500791656A1AA90091049100213F
:108DC000099506914FF4806569460295059506461A
:108DD000FFF7D2FB051E07DB3046694600F08EF830
:108DE000002818BF4FF0FF35BDF80C3003F04000ED
:108DF00002B21AB1A18941F04003A38128461AB0FA
:108E00000DF5806D70BD30B51346054A05460C461C
:108E1000106829462246BDE83040FFF7ADBB00BFD1
:108E20007001072038B52C4B054618680C4618B160
:108E3000826B0AB900F054F9A08900F008010BB266
:108E40000BBB00F0100211B211B94FF0FF3038BD6A
:108E500000F0040003B293B1216B41B104F1400270
:108E6000914202D0284600F079FA00212163A089BE
:108E7000216920F024030022A38162602160A0897F
:108E800040F00803A38122694AB9A18901F4207046
:108E9000B0F5007F03D02846214600F0F7FCA389F7
:108EA00013F0010205D0616900224842A260A0616E
:108EB00007E003F0020108B208B9636900E0134655
:108EC000A360236933B9A28902F0800108B20028A7
:108ED000BBD138BD002038BD70010720024B13B153
:108EE000024800F005B8704700000000317B080020
:108EF0000146002002460346FEF7CCBD2DE9F041B5
:108F00000C46054618B1836B0BB900F0E9F8A2894D
:108F100032B302F0080001B2002962D1616842F464
:108F200000600029A08102DCE36B002B18DDA66A3B
:108F3000B6B102F48052002012B22F6828600AB144
:108F4000226D10E001232846E169B0470246013056
:108F500009D1296839B11D2901D016294ED12F60B8
:108F60000020BDE8F081A68906F004010BB22BB108
:108F70006068266B121A0EB1E16B521AE169002388
:108F8000A66A2846B047411C05D12A681AB11D2A95
:108F900001D0162A1FD1A389002123F40062A281E7
:108FA00003F480532269616019B2226021B1421C2E
:108FB00001D12A6802B92065216B2F600029CFD02A
:108FC00004F14000814202D0284600F0C7F9002099
:108FD0002063BDE8F081A38943F04001A181BDE891
:108FE000F0812669002EBBD0920723680CBF62690E
:108FF0000022C6EB03082660A26012E0A38943F0BA
:109000004000A0814FF0FF30BDE8F081676A28463C
:10901000E16932464346B8470028EFDD3618C0EB19
:109020000808B8F1000FF1DC9AE7014620B90448BE
:109030000449006800F0C4BB034B1868FFF75EBF2B
:1090400054BC0800FD8E0800700107200020704706
:1090500000207047014900F092BB00BF79AC0800C6
:10906000002310B50446036043608360818143663A
:10907000C2810361436183611946082200F15C00EB
:10908000FEF7BBFD04480549054A064BE461206232
:109090006162A262E36210BDB9A00800DFA008000F
:1090A0001BA108003FA1080070B568254D430E467E
:1090B00005F10C0100F056FC044640B100F10C0033
:1090C000002184E84200A0602A46FEF796FD204673
:1090D00070BD024B1868FFF7BDBF00BF54BC08004D
:1090E00038B5836B0446EBB90F4A0125C0F8E0326E
:1090F000C263856304F53B7103201A46C4F8E40299
:10910000C4F8E81260680421FFF7AAFFA0680921EB
:109110002A46FFF7A5FFE06812210222BDE8384089
:10912000FFF79EBF38BD00BF55900800F8B51D4B36
:1091300007461E68B06B10B93046FFF7D1FF06F541
:109140003876B4687168013904D4B4F90C5085B12B
:109150006834F8E732680AB13668F2E73846042125
:10916000FFF7A2FF30600028F6D10C243C600446D3
:1091700015E04FF6FF730120A081E381656625604D
:10918000A560656025616561A56104F15C00294603
:109190000822FEF732FD256365636564A5642046F9
:1091A000F8BD00BF54BC0800704770477047704757
:1091B000024B0349186800F0E2BA00BF70010720B3
:1091C0004D900800024B0349186800F0D8BA00BF60
:1091D000700107205190080093892DE9F34114464E
:1091E00003F40052804610B20E4630B9676E43F465
:1091F000005147F40053A181636600F029FB012868
:1092000006D12EB1FF2E03D88DF8046007460FE07B
:109210003246404601A904F15C0301F073FC421C94
:10922000074605D1A28942F04000A081384631E0CE
:109230000025BD422AD0A16801AB4A1E002AA260C7
:109240001ADAA06982420CDB21685A5D0A70236831
:1092500019780A2903D001330022236013E0404625
:1092600001E0595D4046224601F0F2FBB0F1FF31CA
:10927000484250EB010206E02068595D0170226807
:10928000531C236000E01AB90135D2E7304601E0F3
:109290004FF0FF30BDE8FC81F8B5084C0746206868
:1092A0000E4618B1856B0DB9FFF71AFF20683946D5
:1092B0003246BDE8F840FFF78FBF00BF70010720BE
:1092C000F8B5234D0E46044600F076FDAB685F68A6
:1092D00027F0030707F6EF70811B21F47F6222F06D
:1092E0000F06A6F58056B6F5805F04DA204600F03A
:1092F00064FD0020F8BD0021204600F0CDFEAB68E3
:10930000D9198842F2D17142204600F0C5FE0130E1
:1093100010D10021204600F0BFFEAB68C21A0F2A10
:10932000E4DD0C4942F0010209685A60401A0A491A
:109330000860DBE7084BA8681A68BF1B47F0010705
:109340004760961B20461E6000F037FD0120F8BDE7
:109350001C060720240A072074520720F8B5064689
:109360000D46002900F0A68000F026FD55F804CC3B
:10937000514FA5F108032CF001029C18B9686068F0
:109380008C4220F003000CF001011CD1821839B985
:1093900055F8081C5B1A98685218D968C160886033
:1093A000454842F0010159608360444B19688A4284
:1093B00004D3434A30461168FFF782FF3046BDE8C8
:1093C000F84000F0FABC606059B955F8085C0837FD
:1093D0005B1B52199D68BD4205D0DF68EF60BD6020
:1093E00002E0002100E0012125186D6815F0010F51
:1093F0000FD1121849B9A068324DA84205D1EB60CF
:10940000AB60D8609860012103E0E068A468E06088
:10941000846042F0010058609A500029CED1B2F524
:10942000007F0CD2D2089010012404FA00F42249E3
:1094300048682043486001EBC200816835E0540A67
:10944000042C02D89409383416E0142C01D85B346B
:1094500012E0542C02D8140B6E340DE0B4F5AA7F40
:1094600002D8D40B773407E040F25455AC4202D80E
:10947000940C7C3400E07E240F4D05EBC400816821
:1094800081420CD10122A41002FA04F4686844EA73
:1094900000026A60084608E08968814204D04C688E
:1094A00024F00304A242F7D3C868D86099608360AF
:1094B000CB6083E7F8BD00BF1C060720280A072001
:1094C000705207202406072093682DE9F74F0646BF
:1094D0000C4691460BB900204FE1888900F0080145
:1094E0000AB20AB123695BB930462146FFF79AFCFC
:1094F00030B1A189092241F04000A08132603AE1F7
:10950000B4F80CA0D9F800800AF0020C0FFA8CF520
:1095100015B34FF0000A574637B9D8F800A0D8F86D
:10952000047008F10808F7E7B7F5806F34BF3B46D1
:109530004FF480633046E1695246656AA8470028C7
:1095400040F31581D9F8081082443F1A081AC9F867
:1095500008000028E0D1BEE71AF0010A04D0AB46AB
:1095600001952F46AA46C7E0554635B9D8F800A060
:10957000D8F8045008F10808F7E7A289D4F808B031
:1095800002F4007003B2002B52D05D4540D312F4B8
:10959000906F3BD063694FF0030B0BFB03F3216922
:1095A000276802207F1A93FBF0FC7B1C581902F4F9
:1095B0008062844528BF604613B2019030467BB17B
:1095C000019900F0CFF9834698B121693A46FEF738
:1095D0000BFBA18921F4906040F08002A2810BE096
:1095E000019A00F0EBFB834630B930462169FFF762
:1095F000B5FE0C233360BAE001990BEB0703CF1BD8
:10960000C4F810B023606161AB46A7605D4500D22D
:10961000AB465A465146206800F0B4FBA068236868
:10962000CBEB000203EB0B01A2602160AB462AE00A
:109630002068216988420FD95D450DD951465A46A7
:1096400000F0A0FB2268214602EB0B0020603046B0
:10965000FFF754FCB8B18AE063699D4208D3676A9A
:109660003046E1695246B847B0F1000B0BDC7EE0B2
:1096700051462A4600F086FBA2682368501B591900
:10968000AB46A0602160D9F80800DA44CBEB0002B9
:10969000CBEB0505C9F80820002A7FF466AF1AE76E
:1096A0000198002832D020682169D34534BF5B4639
:1096B00053468842A568D4F814E037D97544AB42C4
:1096C00034DD39462A4600F05DFB20682146431907
:1096D00023603046FFF712FC002848D1BBEB050B96
:1096E0003DD0D9F808207F19C5EB0A0A551BC9F8E7
:1096F0000850002D3FF4EFAEBAF1000FD0D1002199
:1097000098E88004019108F10808F5E738460A2135
:10971000524600F029FB20B100F10101C7EB010B1B
:1097200001E00AF1010B01220192BCE7734508DB5D
:10973000656A3046E1693A467346A847051ECDDCA6
:1097400015E01A463946009300F01CFB009B256883
:10975000A068E918C21AA26021601D46BEE7304623
:109760002146FFF7CBFB10B9CDF804B0B9E7A289C9
:1097700042F04003A3814FF0FF30BDE8FE8F2DE99A
:10978000F04104468846FFF70FFD04F538740026C3
:109790008CB1A5686768013F0BD4B5F90C3033B1C3
:1097A000B5F90E00431C02D02846C0470643683571
:1097B000F1E72468ECE7FFF7F8FC3046BDE8F081FC
:1097C0002DE9F84380468946FFF7EEFC08F538742A
:1097D000002694B1A5686768013F0CD4B5F90C3038
:1097E0003BB1B5F90E00431C03D040462946C8479B
:1097F00006436835F0E72468EBE7FFF7D6FC304610
:10980000BDE8F88310B514460AB90C4810BD1046DF
:109810000B4900F098FC0028F7D02046074900F0DB
:1098200092FC0028F1D02046064900F08CFC034B46
:1098300000280CBF1846002010BD00BF58BC08000F
:10984000BCBC08008ABA080000487047A005072081
:10985000014B186A704700BFA005072000487047F9
:10986000C40507200020704700487047E405072022
:109870000A460349034608681946FFF7C3BF00BFFD
:109880007001072000487047E4050720F0B58B8978
:109890000C4603F002010AB291B00646002A3FD1FD
:1098A000B4F90E1000290DDAA78907F0800247F4F9
:1098B000006310B200280CBF4FF480654025A381DF
:1098C000002720E001AA01F0DFF90028ECDB029874
:1098D00000F47045B5F500535F425F41B5F5004FA8
:1098E0000BD1A16A1D4A914207D1A3894FF480652B
:1098F00043F48061A181E56405E0A08940F400653E
:10990000A5814FF480653046294600F02BF870B9E8
:10991000A38903F4007210B2E8B943F00201A181F7
:1099200004F14303012223602361626113E0A289F1
:109930000B4942F08003F163A381206020616561DF
:109940004FB13046B4F90E1001F0B0F918B1A0894A
:1099500040F00101A18111B0F0BD00BF1BA10800C2
:10996000559008002DE9F04701F10B04162C06462E
:1099700003D934F0070401D502E010248C4202D24E
:109980000C253560D9E1304600F016FAB4F5FC7FBD
:1099900014D2A04DE10805EBC100C568854205D190
:1099A00005F108036D698A1C9D4244D0E868A968E6
:1099B0006A68C86022F00303816059E0620A01D13D
:1099C000E2081BE0042A02D8A209383216E0142A61
:1099D00001D85B3212E0542A02D8220B6E320DE01D
:1099E000B2F5AA7F02D8E20B773207E040F2545377
:1099F0009A4202D8A20C7C3200E07E22854800EB1D
:109A0000C203DD689D4215D0696821F00301081B7F
:109A10000F2801DD013A0DE0002809DBEB68AA6898
:109A2000D3609A606B185A6842F00100586090E168
:109A3000ED68E7E7013277490D6901F10807BD429A
:109A400068D0686820F00303181B0F280CDD2B1961
:109A50004B610B6144F0010440F001016C60DF6078
:109A60009F605960185074E100284F610F6101DB5D
:109A7000EB18D8E7B3F5007F0FD2DB089810012769
:109A800007FA00F7486807434F6001EBC3018B6892
:109A9000E960AB60DD608D603CE0580A042802D8C4
:109AA0009809383016E0142801D85B3012E05428A9
:109AB00002D8180B6E300DE0B0F5AA7F02D8D80B93
:109AC000773007E040F25457B84202D8980C7C3007
:109AD00000E07E20DFF83CE10EEBC007B968B94238
:109AE0000ED18710012303FA07F0DEF8047040EA74
:109AF0000703CEF80430084608E08968B94204D06C
:109B0000486820F003008342F7D3C868E860A96082
:109B1000CD6085609510012000FA05F33D4F79680E
:109B20008B425DD80B4205D122F003025B00043268
:109B30000B42FBD0374D104605EBC20E7746FD6851
:109B4000BD422DD0696821F0030CC4EB0C010F2934
:109B500013DD2B1944F00104EA686C6055F8080F16
:109B60005950C26090602B4A41F00100536113616B
:109B70000832DA609A6058600CE000290EDB05EBD1
:109B80000C004268E96842F00103436055F8080F91
:109B9000C1608860304600F010F9DEE0ED68CFE784
:109BA0000130810705F10807C9D17146950705D134
:109BB000184A556825EA0305556005E0A1F1080734
:109BC0000968013AB942F1D0124F5B007F68BB428D
:109BD00006D82BB102463B42ACD104325B00FAE717
:109BE0000C4B9F681946786820F00309A14504D3FF
:109BF000C4EB09000F2800F3A280074AD1F808340B
:109C00001568013307EB090A04EB050806D108F1D2
:109C100010080BE01C0607207052072008F5805042
:109C200000F10F0121F47F6222F00F083046414617
:109C300000F032FA421C054671D0504502D2484B22
:109C40009F426CD1474855454168454A08EB01039E
:109C5000436007D1290505D19568C84448F0010043
:109C6000686051E0D2F80804421C03D13C4AC2F8B3
:109C7000085405E0CAEB050A03EB0A01394B5960A9
:109C800015F007001CBFC0F108002D1805EB080CEB
:109C900000F580514FEA0C5EA1EB1E58414630465C
:109CA00000F0FAF92F4A431C536808BF4FF0000830
:109CB00008EB030108BF28465160401B284A00EB0F
:109CC000080343F001019742956069601CD0B9F127
:109CD0000F0F02D801226A6021E07D68A9F10C090A
:109CE00029F0070905F00102052107EB090349EAFC
:109CF0000200B9F10F0F78605960996004D93046BD
:109D000007F10801FFF72AFB164A5368D16A156B61
:109D10008B4288BFD362AB4284BF124D2B63104885
:109D20008268536823F00301A142C4EB010001D310
:109D30000F2804DC304600F040F800250DE0084A0A
:109D400044F00103956840F001012C196B609460A8
:109D50006160304600F031F808352846BDE8F087EC
:109D60001C0607207052072010B5C9B2034682189E
:109D70009342184604D0047801338C42F8D100E0B5
:109D8000002010BD814270B50ED28C18A0420BD2BB
:109D90008518134613F1FF3305D351426618F65C5C
:109DA0006918CE54F6E770BD0023934203D0CC5C13
:109DB000C4540133F9E770BD704770472DE9F84F7F
:109DC000814616460C4621B91146BDE8F84FFFF70B
:109DD000C9BDFFF7F1FF06F10B0754F8045C162F1D
:109DE000A4F1080B25F0030803D937F0070701D5C4
:109DF00002E01027B74204D20C20C9F80000002668
:109E000045E1B84580F21A81A24A0BEB080391683C
:109E10008B4206D0586820F0010298184268D0079B
:109E200026D45A688B4222F0030000EB080A18D1AE
:109E300007F1100292451DDBC7EB0A0A0BEB070581
:109E40004AF00101696054F8042C924E02F00103BB
:109E50001F43B56044F8047C4846FFF7AEFF264632
:109E600015E1BA4506DBDD689E68F560AE60E6E0A8
:109E700000200346EA0700F1918054F8085CC5EB26
:109E80000B056A6822F00302002B51D002EB080A8E
:109E90008B42824445D107F110039A4548DB2E4698
:109EA000E96856F8083FA8F10402242AD9608B60BB
:109EB00025D8132A1BD921681B2AA9606368EB6087
:109EC00003D805F11000083412E0A068242A2861A4
:109ED000E168696103D005F11800103408E02269D7
:109EE00005F12000AA6163691834EB6100E0304697
:109EF0002168016062684260A368836003E03046C5
:109F00002146FFF73FFFC7EB0A0AE8194AF00102B2
:109F100042606B685F49886003F0010007436F602F
:109F200088E0BA4504DBD9689868C160886003E0BE
:109F300002EB080ABA4531DB2846EB6850F8081FE7
:109F4000A8F10402242ACB60996023D8132A1AD9D5
:109F500020681B2AA8606668EE6003D805F110002F
:109F6000083410E0A368242A2B61E168696103D0FA
:109F700005F11800103406E02269AA6160691834FE
:109F8000E86105F120002668066063684360A16807
:109F9000816055E02146FFF7F5FE51E03146484625
:109FA000FFF7E0FC0646002844D054F8041CA0F15A
:109FB000080221F001030BEB03018A4206D150F89D
:109FC000046C26F0030505EB080A38E0A8F104024A
:109FD000242A28D8132A1ED923681B2A0360616803
:109FE000416004D800F1080004F1080214E0A06800
:109FF000242AB060E368F36004D006F1100004F195
:10A00000100209E0226906F118003261616904F169
:10A010001802716100E022461368036051684160D4
:10A020009268826002E02146FFF7ACFE4846214676
:10A03000FFF794F94846FFF7C0FE28E0C2465D46A8
:10A04000C7EB0A000F286A6811D902F00106E91966
:10A0500040F0010337436F6008184B6042680831D5
:10A0600042F0010646604846FFF778F90AE002F040
:10A0700001064AEA06036B6005EB0A01486840F0F6
:10A0800001024A604846FFF798FE05F1080630468F
:10A09000BDE8F88F1C06072038B5064C002305469E
:10A0A00008462360FDF7F0F9431C02D1216801B195
:10A0B000296038BD6459072010B50C46B1F90E105F
:10A0C00000F016FE002803DB226D1318236510BD77
:10A0D000A38923F48051A18110BD002070472DE990
:10A0E000F0411D468B890C4603F4807116460AB276
:10A0F00007462AB1B4F90E100022022300F0E6FD53
:10A10000A089B4F90E1020F48053A381384632465A
:10A110002B46BDE8F04100F04BBD10B50C46B1F93F
:10A120000E1000F0D3FD431CA38903D123F4805209
:10A13000A28110BD43F48051A181206510BDB1F909
:10A140000E1000F047BD10F8012B11F8013B012A59
:10A1500028BF9A42F7D0A2EB030070472DE9F74FD2
:10A16000074690680C461546D2F8008008B9506042
:10A170006FE04FF0000B5E4636B9D8F800B0D8F863
:10A18000046008F10808F7E7A3689E424CD3A2894F
:10A1900012F4906F46D02368606921694FF0030A7A
:10A1A000C1EB03090AFB00F3022093FBF0FA02F46F
:10A1B000806209F10103981913B2824538BF8246C3
:10A1C000384683B15146FFF7CDFBA8B121694A4615
:10A1D0000190FDF709FDA08920F4906242F0800112
:10A1E000A181019914E05246FFF7E8FD014678B9D4
:10A1F00038462169FFF7B2F8A3890C20002143F00B
:10A2000040023860A2814FF0FF30A960696020E011
:10A2100001EB0903C9EB0A0023602161C4F814A013
:10A220003346A0609E4200D233461A465946206803
:10A230000193FFF7A7FDA26801992368501A5A18E5
:10A24000A968A0608E1B2260AE60002E95D16E6062
:10A250003046BDE8FE8F2DE9F04F1E468B898946BA
:10A2600003F0800114460AB2A9B083469AB1D9F826
:10A27000103083B94021FFF775FBC9F80000C9F819
:10A28000100028B90C22CBF800204FF0FF30DBE3A0
:10A290004020C9F81400002118AD0B950D910C91C8
:10A2A000019405910491A846019B1C4613F8012BCB
:10A2B0001AB90198251A03D11DE0252AF5D1F8E72E
:10A2C000019A0D9988E824000C9A4B19501C072814
:10A2D0000D930C9002DC08F1080809E05846494645
:10A2E0000BAAFFF73BFF002840F0A3830DF16008A5
:10A2F00004994B1904932278002A00F093830022DA
:10A30000013401948DF827204FF0FF3C039217464B
:10A31000019810F8013B0190632B00F0B38033DC0F
:10A32000392B1ADC312B80F291802B2B01D11A466C
:10A33000EEE70ADC232B55D02A2B56D0202B40F0F9
:10A34000F681002A08BF2022E2E72E2B58D0302BBE
:10A3500079D02D2B40F0EB814FE04F2B00F0DE80C9
:10A3600007DC442B40F0E3818DF8272047F01007ED
:10A3700090E0552B00F01F81582B40F0D881AF4D55
:10A380008DF82720059530E16F2B00F0C98010DC97
:10A39000692B24D007DC642B21D0682B40F0C781C7
:10A3A00047F04007B4E76C2B5FD06E2B40F0BF81C5
:10A3B00096E0732B00F0DF8006DC702B00F0CD8080
:10A3C000712B40F0B4815AE0752B00F0F680782BA9
:10A3D00040F0AD819A4D8DF82720059505E18DF867
:10A3E000272057E047F0010792E7331D3668002E1B
:10A3F000039615DA704203901E4647F0040787E77C
:10A40000019911F8013B2A2B01910BD1D6F800C01C
:10A41000331DBCF1000F03DA1E464FF0FF3C77E717
:10A420001E4675E74FF0000CA3F13000092807D84D
:10A4300001990A2303FB0C0C11F8013B0191F3E78E
:10A440004CEAEC7C68E747F0800761E7019800215F
:10A45000303B0A2404FB013110F8013BA3F1300426
:10A46000092C0190F4D9039156E701990B786C2BD4
:10A4700002D1481C019002E047F0100748E747F07E
:10A48000200745E7326800258DF838208DF82750E1
:10A49000043656E1BA0607D5073626F0070505F15A
:10A4A0000806D5E900450FE017F0100F06F104018A
:10A4B00001D0326805E017F0400F326801D014B2C5
:10A4C00000E01446E5170E46002C75F1000280F2FC
:10A4D000B9802D23644265EB45058DF82730B1E046
:10A4E00017F0200F8DF8272006F1040205D0049CF8
:10A4F0003568E0172C60686004E0FB0604D533681B
:10A50000049919601646CFE63068049C17F0400F96
:10A5100006F1040614BF04800460C5E647F0100786
:10A5200017F0200008D0F31D23F0070505F10806F9
:10A53000D5E9004500207CE017F0100106F1040287
:10A5400006D117F0400003D0348800251646F1E705
:10A5500036680025344616466BE0394B30217822A8
:10A560003468002547F002078DF828108DF829205F
:10A57000043605935CE031460025D1F800A004368E
:10A58000AC458DF82750504611DB62462946CDF880
:10A5900000C0FFF7E9FBDDF800C0002800F0D5801F
:10A5A000CAEB0004644540F3D2806446CFE0FDF777
:10A5B0007EFB0446CBE047F01007BD0606D5F01D34
:10A5C00020F0070404F1080630CC0CE017F0100F5F
:10A5D00006F1040303D17C0601D5348801E0356817
:10A5E0002C4600251E46012023E0B80607D5F41DA1
:10A5F00024F0070101F10806D1E900450CE017F04D
:10A60000100F06F1040003D1790601D5348801E06A
:10A610003668344600250646FA0709D554EA05028D
:10A6200006D030228DF828208DF8293047F0020717
:10A63000022000218DF8271005E000BF7ABC080039
:10A640008BBC08000120BCF1000FA8BF27F08007D9
:10A6500054EA050102D1BCF1000F58D001281DD0E9
:10A6600002280DF15F0341D004F00702E40844EA38
:10A670004570E90804460D46303254EA05019A4611
:10A680001A7003F1FF33EFD1F80755464AD5302A47
:10A6900048D030229A4605F8012C43E0002D08BF2F
:10A6A0000A2C03D230348DF85F4036E00DF15F03A1
:10A6B0000293204629460A220023CDF800C0FCF769
:10A6C000FDFE0298303200F8012929460A220023B3
:10A6D000DDF808A002902046FCF7F0FE04460D4687
:10A6E00054EA0501DDF800C0E3D11BE0059904F050
:10A6F0000F0024090A5C44EA0570290904460D4646
:10A700009A4603F8012954EA0502EFD10AE038B964
:10A71000F90705D530208DF85F000DF15F0A01E0E3
:10A720000DF1600A18ADCAEB050465460FE08DF81F
:10A730002720002B00F0768100258DF838308DF829
:10A74000275001240DF1380A01E0644605469DF8C2
:10A750002730AC42ACBF21462946029113B1029882
:10A76000421C029217F00201069102D0029B981C33
:10A77000029017F0840207923CD10399029BCB1AF6
:10A78000002B37DDA548102BC8F800001BDD0C9A04
:10A7900010210D98C8F80410511C103007290D9095
:10A7A0000C9102DC08F108080BE0584649460BAA58
:10A7B0000093FFF7D3FC009B002840F03A810DF195
:10A7C0006008103BDEE70D9AC8F80430D1180C9BE6
:10A7D0000D91581C07280C9002DC08F1080809E0CC
:10A7E000584649460BAAFFF7B9FC002840F02181E2
:10A7F0000DF160089DF82720DAB10DF12701C8F8A6
:10A8000000100C9901230D98C8F804304B1C421C11
:10A81000072B0D920C9302DC08F1080809E058465A
:10A8200049460BAAFFF79AFC002840F002810DF17F
:10A8300060080698D0B10AAAC8F800200C9A022134
:10A840000D9BC8F80410511C981C07290D900C9101
:10A8500002DC08F1080809E0584649460BAAFFF750
:10A860007DFC002840F0E5800DF16008079B802BFF
:10A870003CD10398029A831A002B37DD6849102BCC
:10A88000C8F800101BDD0C9810220D99C8F80420A0
:10A89000421C1031072A0D910C9202DC08F10808C5
:10A8A0000BE0584649460BAA0093FFF757FC009B64
:10A8B000002840F0BE800DF16008103BDEE70C9AE6
:10A8C0000D98511CC8F80430072903440D930C91CE
:10A8D00002DC08F1080809E0584649460BAAFFF7D0
:10A8E0003DFC002840F0A5800DF160082D1B002DD7
:10A8F00034DD4B48102DC8F8000019DD0C980D9977
:10A90000431C10221031072BC8F804200D910C9322
:10A9100002DC08F1080809E0584649460BAAFFF78F
:10A920001DFC002840F085800DF16008103DE0E737
:10A930000C9A0D9B511CC8F8045007291D440D9515
:10A940000C9102DC08F1080808E0584649460BAAB9
:10A95000FFF704FC00286CD10DF160080C9B0D98EA
:10A960005A1CC8F80440072A0444C8F800A00D94F3
:10A970000C9202DC08F1080307E0584649460BAA8E
:10A98000FFF7ECFB002854D118AB7A070BD40498DE
:10A99000029B039A0D999342ACBFC0188018049093
:10A9A000002936D02FE0039C0299641A002CEEDDBA
:10A9B0001A48102C186015DD0C9910200D9A58605B
:10A9C000481C103207280D920C9001DC083307E078
:10A9D000584649460BAAFFF7C1FB002829D118ABFE
:10A9E000103CE5E70C9A5C600D9B511C1C19072973
:10A9F0000D940C91CBDD584649460BAAFFF7AEFBF0
:10AA00000028C4D015E0584649460BAAFFF7A6FB1C
:10AA100078B900250C950DF1600845E4C4BC080028
:10AA2000D4BC08000D9820B1584649460BAAFFF740
:10AA300095FBB9F80C20049B02F0400108B20028F5
:10AA400018BF4FF0FF33184629B0BDE8F08F00BFA4
:10AA500070B50D461446064618B1836B0BB9FEF768
:10AA60003FFBA189A06901F0080213B2A0600BB1FD
:10AA7000206958B930462146FEF7D4F930B1A5898E
:10AA8000092045F04001A181306017E0A189EDB2B5
:10AA900001F4005213B233B941F40050616EA08149
:10AAA00021F400526266206823696169C01A8842F5
:10AAB00007DB30462146FEF721FA10B14FF0FF3593
:10AAC00015E0A2682168531EA36001F8015B62696A
:10AAD00001309042216004D0A389DB0707D50A2DFD
:10AAE00005D130462146FEF709FA0028E6D128466E
:10AAF00070BD0A460249034608681946FFF7A8BF19
:10AB0000700107202DE9F0411D46104B86B0044628
:10AB100090460E461F6839B9FEF796FE009503462B
:10AB200003A92046324606E0FEF78EFE0095034656
:10AB3000314620464246B847431C03D100218A22B1
:10AB40002960226006B0BDE8F08100BF2C0A072012
:10AB500030B51346044A05460C461068294622467D
:10AB6000BDE83040FFF7CEBF7001072049B1FF2A92
:10AB700004D98A2303604FF0FF3070470A70012028
:10AB80007047084670472DE9F3419846074B054644
:10AB90000F4616461C68FEF757FECDF800800346A8
:10ABA000394628463246A047BDE8FC812C0A0720DA
:10ABB00038B5074C054600202060084611461A4665
:10ABC000FBF76CFF431C02D1236803B12B6038BD37
:10ABD0006459072038B5064C002305460846236013
:10ABE000FCF760FC431C02D1216801B1296038BD2B
:10ABF0006459072070B505460C46002939D0FEF788
:10AC0000D3FA25B1AB6B13B92846FEF769FAB4F94C
:10AC10000C605EB328462146FEF770F9E26A0646EC
:10AC20003AB12846E169904736EA200628BF4FF03E
:10AC3000FF36A08900F080010BB21BB128462169C4
:10AC4000FEF78CFB216B41B104F14002914202D02E
:10AC50002846FEF783FB00202063616C21B1284663
:10AC6000FEF77CFB002161640023A381FEF79DFABF
:10AC700000E00E46304670BD024B01461868FFF7F3
:10AC8000B9BF00BF7001072038B5074C0023054647
:10AC9000084611462360FCF708FC431C02D12168DA
:10ACA00001B1296038BD00BF6459072038B5064C92
:10ACB0000023054608462360FCF7FCFB431C02D139
:10ACC000216801B1296038BD6459072038B5074CA7
:10ACD000054600202060084611461A46FCF7ECFBAA
:10ACE000431C02D1236803B12B6038BD645907208F
:10ACF00038B5074C054600202060084611461A4624
:10AD0000FBF7E2FE431C02D1236803B12B6038BD80
:10AD100064590720000000000A0000000C00000039
:10AD20000D0000000F0000001400000019000000DA
:10AD30001E00000023000000280000002D0000007D
:10AD400032000000370000003C0000004600000018
:10AD5000500000000A00000064000000E80300004A
:10AD600010270000000000000000000000000000AC
:10AD7000000000000A0000000C0000000D000000B0
:10AD80000F000000140000001A0000001E00000068
:10AD900023000000280000002D0000003400000007
:10ADA000370000003C00000046000000500000009A
:10ADB0000001B7010000B7010000B7010000B701B2
:10ADC0000002B7012B333735323937373632363652
:10ADD0003900000049524249530D54657374206D87
:10ADE00065737361676500000000000000000000EB
:10ADF0000000000000000000000000000000000053
:10AE00000000000000000000000000000000000042
:10AE10000000000000000000000000000000000032
:10AE20000000000000000000000000000000000022
:10AE30000000000000000000000000000000000012
:10AE40000000000000000000000000000000000002
:10AE50000000000000010203070A092D3D4C656453
:10AE60007320546573743D2D0D0A004368616E674D
:10AE700065207374617465204C65647320746F2061
:10AE8000475245454E2D4F52414E47452D52454460
:10AE90002E2E2E0D0A00477265656E202D204F4E16
:10AEA0002C207072657373206B65792E2E2E0D0A1F
:10AEB000004F72616E6765202D204F4E2C207072FE
:10AEC000657373206B65792E2E2E0D0A0052656412
:10AED000202D204F4E2C207072657373206B657986
:10AEE0002E2E2E0D0A004E6F7720616761696E204D
:10AEF000475245454E0D0A00456E642074657374D3
:10AF00000D0A00092D3D49324320546573743D2DCF
:10AF10000D0A005363616E204932432064657669EF
:10AF20006365732E2E2E0D0A0041736B2066726FBF
:10AF30006D20616464726573732D307825303258EA
:10AF40000D0A005363616E2061646472657373203F
:10AF5000636F6D706C6574652C20666F756E6465CB
:10AF600064206465766963652D25640D0A00537459
:10AF700061727420746573742032346C63313620CE
:10AF8000656570726F6D2077726974652F72656187
:10AF9000642F636F6D706172650D0A00577269747A
:10AFA0006520646174612825642062797465732961
:10AFB0003A0D0A003078253032582000526561641D
:10AFC0002064617461282564206279746573293A6C
:10AFD0000D0A004572726F72732D25640D0A004EC2
:10AFE0006F206572726F72732C204F6B0D0A00090F
:10AFF0002D3D52656C61797320546573743D2D0D40
:10B000000A0052656C61792330202D4F6E0D0A00C5
:10B01000666F722074657374206E65787420726533
:10B020006C617920707265737320616E79206B6535
:10B03000792E2E2E0D0A0052656C61792330202D59
:10B040004F66660D0A0052656C61792331202D4FE1
:10B050006E0D0A0052656C61792331202D4F6666B2
:10B060000D0A0052656C61792332202D4F6E0D0A56
:10B070000052656C61792332202D4F66660D0A00FF
:10B0800052656C61792333202D4F6E0D0A00666F77
:10B090007220656E642074657374207072657373BA
:10B0A00020616E79206B65792E2E2E0D0A00526577
:10B0B0006C61792333202D4F66660D0A00092D3D02
:10B0C0005842656520746573743D2D0D0A00496E04
:10B0D00069742064617461206368656E6E656C20BC
:10B0E000666F722058426565206F6E2073706565CB
:10B0F00064203131353230302E2E2E0D0A00506F43
:10B100007765722D4F6E0D0A0053656E642074656D
:10B1100073742073657175656E63652E2E2E4F6B8B
:10B120000D0A005465737444617461466F7258422D
:10B1300065654D6F64756C6500466F722072657051
:10B1400065617420746573742073657175616E63D5
:10B1500065207072657373205350414345206F72B0
:10B1600020616E79206B657920666F7220656E6450
:10B1700020746573742E2E2E0D0A00506F77657241
:10B180002D4F66660D0A00092D3D4D6F64656D20DB
:10B19000546573743D2D0D0A00496E697420646115
:10B1A0007461206368616E6E656C20666F72204DFD
:10B1B0006F64656D206F6E203131353230302E2E48
:10B1C0002E0D0A004D6F64656D20706F77657220DB
:10B1D0002D204F6E0D0A004D6F64656D2052657312
:10B1E00065742E2E2E776169740D0A004D6F6465AB
:10B1F0006D2052657365742E2E2E4F6B0D0A005311
:10B20000656E642073746174757320726571756501
:10B2100073742E2E2E776169740D0A0041542B43EE
:10B22000474D520D004F4B004D6F64656D204669D0
:10B23000726D776172652076657273696F6E3A25FB
:10B24000730D0A0041542B434D47463D310D0045D7
:10B2500052524F52004D6F64656D20646574656392
:10B260007465642E0D0A0042616420616E73776517
:10B27000722C20636865636B2053494D20636172B3
:10B2800064206F7220416E74656E6E610D0A004D10
:10B290006F64656D206E6F7420666F756E642E0D21
:10B2A0000A004E6F20616E737765722066726F6D53
:10B2B000206D6F64656D203A28200D0A0041542BE3
:10B2C000435343533D22495241220D004D6F646563
:10B2D0006D20726561647920666F722073656E649B
:10B2E00020534D532E0D0A00456E74657220706810
:10B2F0006F6E65206E756D6265723A0D0A0050685A
:10B300006F6E653A2573203F5B592F4E5D0D0A0025
:10B31000456E74657220736D7320746573743A0D95
:10B320000A00534D533A25730D0A0053656E646944
:10B330006E67206D6573736167652E2E2E0D0A0092
:10B3400041542B434D47533D25730D00534D53201E
:10B3500073656E74210D0A004572726F72210D0AB9
:10B3600000092D3D525334383520627573205465E1
:10B3700073743D2D00496E69742072733438352022
:10B380006F6E20737065656420393630302E2E2E36
:10B390000D0A005465737452533438350D0A000990
:10B3A0002D3D43414E20546573743D2D0D0A0049D7
:10B3B0006E69742043414E30206368616E6E656C27
:10B3C000206F6E2073706565642025644B2E2E2ED1
:10B3D0000D0A00092D3D5344636172642054657366
:10B3E000743D2D0D0A00436865636B696E672053D9
:10B3F0004420636172642E2E2E776169740D0A00F9
:10B4000053442063617264206E6F7420696E7365AB
:10B4100072746564210D0A005344206361726420D4
:10B4200063616E7420696E6974210D0A00534420B3
:10B43000636172642064617465637465642E0D0ACF
:10B4400000496E69742066696C6520737973746550
:10B450006D2E2E2E0D0A00496E69742066696C658A
:10B460002073797374656D2E2E2E4641494C0D0A5A
:10B4700000496E69742066696C6520737973746520
:10B480006D2E2E2E4F6B0D0A005072696E74206661
:10B49000696C65206C697374206F6E20534420635F
:10B4A0006172643A0D0A004E6F2E20202020202069
:10B4B0002020202020202046696C656E616D650D7E
:10B4C0000A002F002564202D202573203C4449527A
:10B4D0003E202830782578290D0A002564202D206B
:10B4E0002573205B25642062797465735D202830A4
:10B4F000782578290D0A004C6F6F6B696E6720669E
:10B500006F722066696C657320436F6D706C656146
:10B5100074652E46696C65733A256400092D3D4DAE
:10B52000696372656C204B535A383035312070682E
:10B530007920746573743D2D0D0A0052657365742E
:10B54000204B535A383035312C2073657420616399
:10B5500074697665207265736574207369676E61BE
:10B560006C2E2E2E0D0A005265736574204B535AB3
:10B57000383035312E2E2E646F6E652E0D0A005335
:10B5800063616E204D44494F206275732E2E2E0D3F
:10B590000A00466F756E64205048595F41646472BA
:10B5A0002D253032582049443D3078253034585FBD
:10B5B000253034580D0A005363616E204D44494FC5
:10B5C000206275732E2E2E646F6E652E0D0A004557
:10B5D00052524F523A506879206E6F7420666F75E0
:10B5E0006E642E0D0A0047657474696E67206C697D
:10B5F0006E6B207374617475732E2E2E0D0A004CC1
:10B60000696E6B207374617475733A2055500D0A1E
:10B61000005374617274205443502F495020737446
:10B6200061636B3A0D0A0049503A25642E25642E59
:10B6300025642E25640D0A004D533A25642E256499
:10B640002E25642E25640D0A005443502F495020A6
:10B65000737461636B2069732072756E0D0A0075D7
:10B6600073652070696E672066726F6D205043208D
:10B67000666F7220636865636B2069740D0A0065EC
:10B680002E672E203E70696E67203139322E31369A
:10B69000382E312E313830200D0A00616C736F2046
:10B6A000796F752073686F756C64206265207365AF
:10B6B0006520776562207061676520696E2062721F
:10B6C0006F777365720D0A00652E672E206874749B
:10B6D000703A2F2F3139322E3136382E312E313803
:10B6E00030200D0A00464F522045584954204652FA
:10B6F0004F4D2054484953205445535420524542FD
:10B700004F4F54204445564943450D0A004C696E3D
:10B710006B207374617475733A20444F574E0D0A51
:10B72000002D3D436F756E7420696E7075747320C3
:10B73000746573743D2D0D0A005265616420706953
:10B740006E732076616C75653A0D0A004331202DC9
:10B75000202530315820004332202D20253031580B
:10B7600020004333202D2025303158200043342041
:10B770002D202530315820004335202D2025303113
:10B780005820004336202D20253031582000466FA8
:10B790007220726570656174207265616420434F28
:10B7A000554E54782070696E7320737461746520EF
:10B7B0007072657373205350414345206F7220614E
:10B7C0006E79206B657920666F7220656E642074D7
:10B7D0006573742E2E2E0D0A00092D3D4144432021
:10B7E000746573743D2D0D0A004125642D30782554
:10B7F0003033582000466F722067657420414443FF
:10B800002076616C756520616761696E2070726574
:10B810007373205350414345206F7220616E79202D
:10B820006B657920666F7220656E64207465737431
:10B830002E2E2E0D0A00092D3D415453414D3358F3
:10B84000205265466C6173683D2D0D0A00466F728B
:10B850002073776974636820646576696365207412
:10B860006F205553422053414D2D4241206C6F6152
:10B8700064657220707265737320277927206B6569
:10B88000790D0A00277927206F7220416E79206B8D
:10B89000657920746F20657869742E2E2E0D0A004C
:10B8A0004F6B61792C206E6F77207265626F6F74B9
:10B8B00020646576696365210D0A000004251CA0DB
:10B8C000025048595F416464722D25640D0A0008D6
:10B8D000030202034B0902030302430A03030303A7
:10B8E000460B04030304480C03040404430D04043E
:10B8F00004044D0E04040504400F04050504431020
:10B90000050505044511060505044712050606044C
:10B9100043130606060444140706060446150806E3
:10B9200006044716070707044417080807044618C3
:10B93000070808044319080808044480000000C0F0
:10B94000485454502F312E3020343030204261641E
:10B9500020726571756573740D0A446174653A20CF
:10B960005765642C203036204E6F762032303133CC
:10B970002030383A35313A313620474D540D0A538C
:10B9800065727665723A204170616368652F312E69
:10B99000332E32372028556E697829206D72755FF5
:10B9A000786D6C2F302E34373120676F72676F6E71
:10B9B000612F322E31206D6F645F6A6B2F312E3212
:10B9C0002E34206D6F645F727562792F312E302EA8
:10B9D0003720527562792F312E362E38206D6F64E4
:10B9E0005F6D72696D2F302E31370D0A436F6E6EA9
:10B9F000656374696F6E3A20636C6F73650D0A43FB
:10BA00006F6E74656E742D547970653A2074657824
:10BA1000742F68746D6C0D0A0D0A3C7469746C6542
:10BA20003E49524249532045746865726E657420E0
:10BA30007465737420706167653C2F7469746C65FC
:10BA40003E3C626F6479206267636F6C6F723D2366
:10BA50004441443544353E3C68333E3C63656E7436
:10BA600065723E49524249532064656D6F20706192
:10BA700067653C2F63656E7465723E3C2F683E3C83
:10BA80002F626F64793E0D0A0D0A00FFFFFFFFFF72
:10BA9000FF707265737320656E74657220746F2019
:10BAA00073746172740D0A004C6973742074657349
:10BAB000743A0D0A0020202563292025730D0A0001
:10BAC000506C6561736520656E7465722074657372
:10BAD000743A0D0A0025630D0A002D2D2D2D2D2DF4
:10BAE0002D2D2D2D2D2D2D2D2D2D2D2D2D2D2D2D86
:10BAF0002D2D2D2D2D2D2D2D2D2D2D2D2D2D2D0D96
:10BB00000A00424144206B6579202D2025632C20BA
:10BB1000757365206B65792066726F6D206C697333
:10BB200074210D0A00092D3D426F617264206D651C
:10BB30006E7520746573743D2D0D0A004C65647339
:10BB400020546573740052656C6179207465737458
:10BB50000043414E207465737420286F6E6C792009
:10BB600073656E6420646174612900525334383502
:10BB7000207465737420286F6E6C792073656E6411
:10BB80002064617461290058426565206D6F647599
:10BB90006C65207465737420286F6E6C79207365F2
:10BBA0006E6420646174612900534420636172648F
:10BBB00020746573740054656C69742047534D207C
:10BBC0006D6F64656D20746573740054574928491E
:10BBD00032432920616E6420656570726F6D207438
:10BBE00065737400416E616C6F672070696E7320BD
:10BBF00074657374004469676974616C2070696E60
:10BC00007320746573740045746865726E65742082
:10BC10005465737400466C61736820415453414D00
:10BC200033580000550000000000000056000000DE
:10BC30000000000045000000000000004600000079
:10BC40000000000047000000000000004800000065
:10BC50000000000078010720430020202020202041
:10BC60002020202020202020202030303030303074
:10BC700030303030303030303030303132333435B5
:10BC80003637383941424344454600303132333447
:10BC900035363738396162636465660020202020BC
:10BCA0002020202020202020202020203030303054
:10BCB000303030303030303030303030504F534909
:10BCC00058002E002020202020202020202020206E
:10BCD00020202020303030303030303030303030A4
:10BCE00030303030F8B500BFF8BC08BC9E46704715
:10BCF000DD8E08006D010800F8B500BFF8BC08BC77
:08BD00009E4670474501080052
:08BD080044B8FF7F01000000B8
:10BD1000BFF35F8F0138FBD17047000000000000C7
:10BD20000000000012000000000000000000000001
:10BD30000000000000000000000000000000000003
:10BD400061120800F90E0800ED0E0800F10E08005F
:10BD500099100800DD100800DD0E0800350F0800FE
:10BD6000F10E0800000000007000072068000720A6
:10BD700044000720300007208400072060000720CF
:10BD80001201000202000040EB0304240001000045
:10BD90000001000009024300020100C03209040052
:10BDA0000001020201000524001001042402020522
:10BDB0002406000105240103010705830340001048
:10BDC00009040100020A000000070581024000008A
:10BDD0000705020240000000040309040004251CBA
:10BDE000A002000031000000491A08003CBB080016
:10BDF00032000000751C080046BB0800330000003C
:10BE0000B121080051BB08003400000015210800D2
:10BE10006BBB080035000000291D080087BB080027
:10BE20003600000065220800A9BB080037000000AA
:10BE3000F11D0800B6BB080038000000BD1A08005C
:10BE4000CBBB080039000000DD270800E4BB080078
:10BE50003000000041270800F5BB08006500000025
:10BE6000B123080007BC080066000000FD28080098
:10BE700015BC08000100000000093D0000000000A2
:10BE80007801072000000000000000006404072083
:10BE9000CC0407203405072000000000000000004B
:10BEA0000000000000000000000000000000000092
:10BEB00000000000000000000000000058BC080066
:10BEC0000000000000000000000000000000000072
:10BED0000000000000000000000000000000000062
:10BEE0000000000000000000000000000000000052
:10BEF0000000000000000000000000000000000042
:10BF00000000000000000000000000000000000031
:10BF10000000000000000000000000000000000021
:10BF20000000000000000000000000000000000011
:10BF300001000000000000000E33CDAB34126DE6AE
:10BF4000ECDE05000B000000000000000000000017
:10BF500000000000000000000000000000000000E1
:10BF600000000000000000000000000000000000D1
:10BF700000000000000000000000000000000000C1
:10BF800000000000000000000000000000000000B1
:10C2B0004153434949000000000000000000000015
:10C2C000000000000000000000000000000000006E
:10C2D00001000000415343494900000000000000F4
:10C2E000000000000000000000000000000000004E
:10C2F00000000000C2BC08008ABA08008ABA080020
:10C300008ABA08008ABA08008ABA08008ABA0800FD
:10C310008ABA08008ABA08008ABA0800FFFFFFFF3D
:10C32000FFFFFFFFFFFFFFFFFFFF00000000000017
:10C33000000000001C0607201C060720240607201A
:10C34000240607202C0607202C0607203406072089
:10C35000340607203C0607203C0607204406072039
:10C36000440607204C0607204C06072054060720E9
:10C37000540607205C0607205C0607206406072099
:10C38000640607206C0607206C0607207406072049
:10C39000740607207C0607207C06072084060720F9
:10C3A000840607208C0607208C06072094060720A9
:10C3B000940607209C0607209C060720A406072059
:10C3C000A4060720AC060720AC060720B406072009
:10C3D000B4060720BC060720BC060720C4060720B9
:10C3E000C4060720CC060720CC060720D406072069
:10C3F000D4060720DC060720DC060720E406072019
:10C40000E4060720EC060720EC060720F4060720C8
:10C41000F4060720FC060720FC0607200407072077
:10C42000040707200C0707200C0707201407072024
:10C43000140707201C0707201C07072024070720D4
:10C44000240707202C0707202C0707203407072084
:10C45000340707203C0707203C0707204407072034
:10C46000440707204C0707204C07072054070720E4
:10C47000540707205C0707205C0707206407072094
:10C48000640707206C0707206C0707207407072044
:10C49000740707207C0707207C07072084070720F4
:10C4A000840707208C0707208C07072094070720A4
:10C4B000940707209C0707209C070720A407072054
:10C4C000A4070720AC070720AC070720B407072004
:10C4D000B4070720BC070720BC070720C4070720B4
:10C4E000C4070720CC070720CC070720D407072064
:10C4F000D4070720DC070720DC070720E407072014
:10C50000E4070720EC070720EC070720F4070720C3
:10C51000F4070720FC070720FC0707200408072072
:10C52000040807200C0807200C080720140807201F
:10C53000140807201C0807201C08072024080720CF
:10C54000240807202C0807202C080720340807207F
:10C55000340807203C0807203C080720440807202F
:10C56000440807204C0807204C08072054080720DF
:10C57000540807205C0807205C080720640807208F
:10C58000640807206C0807206C080720740807203F
:10C59000740807207C0807207C08072084080720EF
:10C5A000840807208C0807208C080720940807209F
:10C5B000940807209C0807209C080720A40807204F
:10C5C000A4080720AC080720AC080720B4080720FF
:10C5D000B4080720BC080720BC080720C4080720AF
:10C5E000C4080720CC080720CC080720D40807205F
:10C5F000D4080720DC080720DC080720E40807200F
:10C60000E4080720EC080720EC080720F4080720BE
:10C61000F4080720FC080720FC080720040907206D
:10C62000040907200C0907200C090720140907201A
:10C63000140907201C0907201C09072024090720CA
:10C64000240907202C0907202C090720340907207A
:10C65000340907203C0907203C090720440907202A
:10C66000440907204C0907204C09072054090720DA
:10C67000540907205C0907205C090720640907208A
:10C68000640907206C0907206C090720740907203A
:10C69000740907207C0907207C09072084090720EA
:10C6A000840907208C0907208C090720940907209A
:10C6B000940907209C0907209C090720A40907204A
:10C6C000A4090720AC090720AC090720B4090720FA
:10C6D000B4090720BC090720BC090720C4090720AA
:10C6E000C4090720CC090720CC090720D40907205A
:10C6F000D4090720DC090720DC090720E40907200A
:10C70000E4090720EC090720EC090720F4090720B9
:10C71000F4090720FC090720FC090720040A072068
:10C72000040A07200C0A07200C0A0720140A072015
:10C73000140A0720FFFFFFFF000002006DAB080096
:04000003800072D136
:00000001FF
